:020000040800F2
:10000000204C002089CC0008B12B000827130108E0
:10001000B32B0008B72B0008BB2B00080000000022
:10002000000000000000000000000000BF2B0008DE
:10003000C12B000800000000AF120108272B0008A8
:10004000A3CC0008A3CC0008A3CC0008A3CC0008D4
:10005000A3CC0008A3CC0008D9350008EB35000874
:10006000FD3500080F3600082136000855530008FA
:10007000A3CC000809300008A3CC0008672F0008B3
:100080008B2F0008A3CC0008A3CC0008C52B0008C8
:10009000C32B0008A3CC0008A3CC0008333600080B
:1000A000A3CC0008A3CC0008A3CC0008A3CC000874
:1000B000A3CC0008A3CC0008A3CC0008A3CC000864
:1000C000A3CC0008A3CC0008A3CC0008A3CC000854
:1000D000A3CC0008552F0008792F00089D2F000899
:1000E00089360008A3CC0008A3CC0008A3CC0008E4
:1000F000A3CC0008A3CC0008A3CC0008A3CC000824
:10010000A3CC0008A3CC0008A3CC0008A3CC000813
:10011000A3CC0008A3CC0008E5540008A3CC000839
:10012000A3CC0008A3CC0008A3CC0008A3CC0008F3
:10013000DFF80CD018F022FB00480047E30100086C
:10014000204C0020002804D090FAA0F0B0FA80F0F3
:10015000401C704717F082FB02F0CFFB03E04FF426
:100160007A7010F050FAFAE71CB5142008210B023F
:100170000022CDE90010AFF2230105A010F010F924
:10018000044614B1204610F0B9F800201CBD000050
:10019000696E69740000000004460D4614A00EF05C
:1001A0001EFF21461CA00EF01AFF29461FA00EF0CC
:1001B00016FF00BFFEE710B502F0BDFC0EF03FFFDA
:1001C0001F4920480FF0C4F80FF04CFE10F028FD36
:1001D00010F032FDFFF7C8FF0CF084FF0FF05EFE59
:1001E00010BD10B511F04CF8FFF7E5FF002010BD71
:1001F0000A0D2057726F6E6720706172616D6574B1
:1002000065722076616C75652064657465637465DC
:1002100064206F6E0D0A0000202020202020206620
:10022000696C65202025730D0A0000002020202025
:100230002020206C696E65202025640D0A000000D6
:1002400000C00020204C00202D48807870471CB54D
:1002500002220021684603F01EFDBDF80000A0F553
:10026000C040563840B1502809D0B0F5966F07D03D
:10027000B0F51B6F08D106E001F0F3FF07E006E0E0
:1002800001F0D4FF03E002E001F0EBFF00BF00BF8C
:100290000122042101A803F0FEFC0122052101A88E
:1002A00003F0F9FC01201649487001220621144888
:1002B000801C03F0F0FC04220C211148083003F0EC
:1002C000EAFC042208210E48103003F0E4FC04226A
:1002D00010210B480C3003F0DEFC01222C210948D0
:1002E00003F0D9FC01222D210648401C03F0D3FC69
:1002F000182214210348943803F0CDFC1CBD0000E3
:1003000034030020680400207047FE4800787047DE
:1003100028B1FD4948600121FB4A117002E000212B
:10032000F94A117070472DE9F041FFF78DFFC6B211
:10033000F648007845B20027F5480078012801D139
:10034000BDE8F081F1480078404244B271E0781C89
:100350000746F0490978491C88423ADA012E1CD137
:10036000ED49096801EB0411091D51F826302919DE
:1003700001EBC10202EB0111E84A1144481CE8A25A
:10038000182118F04DFC0020291901EBC10202EBE5
:100390000111E24A1144087649E0DF49096801EB9E
:1003A0000411091D51F82630291901EBC10202EB95
:1003B0000111DA4A8818DDA2112118F031FC002061
:1003C000291901EBC10202EB0111D44A114408744E
:1003D0002DE0012E16D1291901EBC10202EB01110A
:1003E000CE4A1144481CD4A3CDA2182118F018FC01
:1003F0000020291901EBC10202EB0111C74A114487
:10040000087614E0291901EBC10202EB0111C34A7D
:100410008818C9A3C5A2112118F002FC00202919CF
:1004200001EBC10202EB0111BC4A11440874601CCB
:1004300044B2B6480078C0F10400A04287DC002432
:1004400034E0B2480078844217D1012E06D1202032
:1004500004EBC40101EB0411B04A505404EBC40096
:1004600000EB0410AD4BC2184FF6FF7000EA041108
:100470000123002003F0E4FA16E0012E06D120202B
:1004800004EBC40101EB0411A44A505404EBC40072
:1004900000EB0410A14BC2184FF6FF7000EA0411E4
:1004A0000023184603F0CCFA601C44B2042CC8DBCD
:1004B00000BF45E72DE9F84307464FF000083846EE
:1004C00017F016FAC5B2934890F8009000209149B1
:1004D0000870002430E09948006800EB04100068C0
:1004E00000B927E09549096801EB04112A4608681C
:1004F000394617F03CFAE0B99048006800EB041068
:10050000066870192E2117F0E9F990B970196A463A
:100510008BA117F03BFA8948006800EB0410894969
:100520009DF8002041F822007A480078401C794963
:10053000087000BF601CC4B21E2CCCDB754800786C
:1005400018B9744880F8009001E04FF00108404667
:10055000BDE8F883F8B570480068006804460646B0
:1005600001E02646641C2E21204617F0B7F9041E30
:10057000F7D16A4672A1701C17F008FA0098C5B24C
:100580002846F8BD30B585B000F0E3F900284FD11A
:1005900000BF5C480078002809DD5A480078401EFA
:1005A000C0B258490870684951F8200000E00020A6
:1005B0005949086000BF65480078002808DD634895
:1005C0000078401EC0B2614908706149085C00E0D3
:1005D00000204E490870FFF7BDFF5E4908704E4984
:1005E000096808685CA117F08AF958B901204849E0
:1005F000087049480068534908600120454908705F
:1006000005B030BD4448006811220168684617F003
:1006100059F96C46254601E02546641C2E212046EA
:1006200017F05CF9041EF7D168706846FFF742FFC7
:1006300000BFE5E710B50446012C06D0042C3AD0E3
:10064000072C5DD00A2C5CD19CE042480078E0B9D0
:100650002E480078C8B92F480078401E3D490870E0
:100660002C480078042805DA2A480078401E2749DB
:10067000087002E00320254908703248354909789E
:1006800050F82100244908608BE032480078401E71
:10069000304908701D480078002804DD1B480078A8
:1006A000401E1A49087027482A49097850F8210045
:1006B0001949086075E017480078401E25490978F7
:1006C00088420CD1002023490870104908701D4849
:1006D0002049097850F821000F49086061E00D4871
:1006E0000078401E1B490978884204DD19480078CB
:1006F000401C184908700548007803283ADA2DE0B4
:100700004BE04DE00C000020000000200A0000201B
:10071000080000200B0000201800002038050020F1
:10072000252D32347320202000000000252D313685
:100730007320202000000000200000001400002092
:1007400025336400C0040020AC0400200D0000200C
:100750000E000020090000203000000080480078D2
:10076000401E80490978884204DD7E480078401C9C
:100770007C4908707C487D49097850F821007C4903
:1007800008600EE07A480068C06828B100F0E1F81F
:1007900010B901207749087003E0FFF7F3FE00E08D
:1007A00000BF00BF10BD10B503F06FFD04467148D7
:1007B000007801280DD17048007828B96C4800688D
:1007C000C1682046884703E06B4841682046884757
:1007D00010BD74B969480088401C68490880084603
:1007E0000088B0F5167F07D10020088000F0D4F80B
:1007F00002E00020614908802046FFF71BFFFFF759
:1008000092FD00BFE4E770B5054600205A49087024
:10081000AFF20B5048605A48056000240EE005EB2B
:1008200004110868AFF2D00117F069F820B905EBA0
:1008300004104F49086003E0601CC4B21E2CEEDBBC
:1008400000BF01204B490870002048490870454905
:100850000870434908704B4908704B4908700024E0
:1008600007E00020494941F8240049490855601C27
:10087000C4B2052CF5DB002405E000203A4941F81C
:100880002400601CC4B21E2CF7DB70BD10B50446FA
:100890000020384908703849087004B1A04710BDDD
:1008A00010B586B0044600203249087064B930485B
:1008B00000681122016801A817F004F8022235A18E
:1008C00001A817F037F809E01122214601A816F017
:1008D000F9FF02222FA101A817F02CF801A8FFF7B9
:1008E000E9FD58B32249086826490978052908DA3C
:1008F00024490A780978491C224B1970234941F888
:10090000220000BF002019490870164908781E49C6
:100910000978052907DA1C490A780978491C1A4B15
:1009200019701B49885400BF00200E4908700E48FA
:100930000E49097850F821000D49086006B010BD35
:1009400010B504460020FFF7ABFF0020FFF79EFF25
:1009500010BD0C48007808B9012070470020FCE762
:100960000B0000200A000020C00400200900002025
:100970001800002008000020000000201C000020BB
:10098000140000200C0000200D000020AC0400200A
:100990000E0000202E00000010B50120F6498870DE
:1009A000F648FFF730FF10BD1CB50446F248018B36
:1009B000C08ACDE90001F048838AF1A21121F548EF
:1009C00018F02EF90023F34A1946184603F038F8B8
:1009D000E948B0F85C10B0F85A00CDE90001E648EB
:1009E000B0F85830E6A21121EA4818F019F90023AE
:1009F000E84A3021184603F023F8DF48C07830B9C0
:100A00000023E5A21021184603F01AF805E00023A0
:100A1000E7A21021184603F013F8D748007930B93F
:100A20000023E9A22021184603F00AF805E000237C
:100A3000EBA22021184603F003F80A2C0FD006DCA5
:100A4000012C0BD0042C08D0072C0ED104E00F2C65
:100A50000AD0102C09D106E008E007E006E00020EB
:100A6000FFF76EFF02E001E000E000BF00BF1CBD29
:100A70002DE9F04705460E4617464FF00008284678
:100A800016F036FF81463080002405E0285D80287E
:100A900001DA08F10108641C4C45F7DBA7F8008077
:100AA000BDE8F087F0B58BB004460E4602AA03A954
:100AB0002046FFF7DDFFBDF80C00BDF80810401A16
:100AC000032190FBF1F087B2BDF8080000EB470569
:100AD000012E11D0C8480068C5F11003C7A2192122
:100AE000CDE9000404A818F09BF8002304AA3021E3
:100AF000184602F0A5FF20E0BF480068C5F11003CA
:100B0000C0A21121009004A818F08AF8002304AABA
:100B10003021184602F094FF2346BCA2192104A8F4
:100B200018F07EF8C5F10F014FF6FF7202EAC1001E
:100B3000012304AA302102F083FF0BB0F0BD2DE9A0
:100B4000F04F87B081460F4690461C46DDF840B016
:100B5000FFF77AFB0546AF4A07CA02AB07C3AE48A8
:100B6000007898BB0120AC4908700020AB490870A0
:100B7000AB4981F800B00846007800FB087656F8CB
:100B8000250005AA06A9FFF773FFBDF81800BDF8F8
:100B90001410401A032190FBF1F01FFA80FA56F866
:100BA000250095490968CDE90010BDF8140000EB57
:100BB0004A00C0F1100391A219219A4818F030F8A8
:100BC0000023984A1021184602F03AFF9448007812
:100BD00000FB087656F8250005AA06A9FFF748FF8E
:100BE000BDF81800BDF81410401A032190FBF1F075
:100BF0001FFA80FA56F825308BA219218B4818F07D
:100C00000FF801218948FFF74DFF8448007830B97B
:100C1000002387A22021184602F012FF07E002A855
:100C200050F8252000232021184602F009FFB9F1D1
:100C3000010F09D0B9F1040F1CD0B9F1070F35D05D
:100C4000B9F10A0F65D146E074480078012802D155
:100C500007B0BDE8F08F7248007820B9601E704977
:100C600008700120F4E76E480078401E6C49087057
:100C70000120EDE769480078012800D1E8E7601E0F
:100C800067490978884204D100206549087001202D
:100C9000DEE7601E62490978884206DD6048007818
:100CA000401C5F4908700120D2E700BF5B48007814
:100CB00018B9012059490870CAE758480078012836
:100CC00008D10020544908705548017811980170E6
:100CD0000020BDE700BF51480078A8B9601E504908
:100CE0000978884204D100204D4908700120AFE7FF
:100CF000601E4B490978884206DD49480078401C4F
:100D0000474908700120A3E70020434908700320E9
:100D10009EE701209CE770B58AB00546FFF794FA7C
:100D200006463C49C43903C9CDE90701394BBC3BF0
:100D30000FCB03AC0FC407A850F826200023194698
:100D4000184602F07DFE09A90B488078022308228C
:100D5000CDE9000103A92846FFF7F1FE044654B986
:100D6000054880789DF8241088426CD10020FFF758
:100D70008DFD0AB070BD74E0340300205095010869
:100D8000253564207C20253364207C202532642096
:100D90002000000048060020202020E4BD8EE4BD95
:100DA0008D3A2020E697A0E6B6B220202020000051
:100DB000202020E4BD8EE4BD8D3A2020E69C89E60B
:100DC000B6B2202020200000202020E9AB98E4BD0E
:100DD0008D3A2020E697A0E6B6B220202020000021
:100DE000202020E9AB98E4BD8D3A2020E69C89E6DE
:100DF000B6B220202020000028000020252D2E2A19
:100E000073257300252D2E2A7300000020252D73D5
:100E100000000000F4970108300000202F0000209F
:100E20002E000020B9050020252D730004060020A7
:100E300020202020202020202020202020202020B2
:100E400000000000FFE79DF82400F84988700122A7
:100E50000621F648801C02F079FF0020FFF716FDFE
:100E600004E0032C02D10020FFF710FD00BF0AB000
:100E700070BD70B588B004460E46204616F038FDA9
:100E80000546012E0CD02346E9A21121EA4817F0AD
:100E9000C7FE0023E84A3021184602F0D1FD40E0A9
:100EA000E6480078E6490968C5F11003E5A2CDE9F6
:100EB00001040091112103A817F0B2FE002303AA38
:100EC0003021184602F0BCFDDC480078205C8DF82B
:100ED0000C0000208DF80D00C5F11001D74A1278E2
:100EE00011444FF6FF7202EAC100012303AA302128
:100EF00002F0A6FDD1480078401C2318D4A211218D
:100F000003A817F08DFEC5F11101CC4A12781144E7
:100F10004FF6FF7202EAC100002303AA302102F05B
:100F20008FFD08B070BD0FB42DE9F04788B00646BC
:100F3000FFF78AF981469DF84850C648D0E900126B
:100F40008068CDE903120590C3480078002863D17A
:100F50000120C14908700020C0490870B7490870D5
:100F6000DDE91421104617F055F8824635B1012D00
:100F700015D0022D24D0042D47D132E05346B8A21B
:100F80000421B94817F04CFE0020B84908705346B8
:100F9000B7A21121A848323817F042FE3BE0534671
:100FA000B5A20621B04817F03BFE0020AF490870FB
:100FB0005346AFA21121A048323817F031FE2AE083
:100FC0005346AFA20721A84817F02AFE0020A749E0
:100FD00008705346ACA211219748323817F020FE12
:100FE00019E0DDE91401AAA2CDE9000111219E4812
:100FF00017F016FE01209D4908705346A6A2112144
:101000008D48323817F00CFE05E0032008B0BDE82B
:10101000F0075DF814FB00BF01219348FFF729FF9B
:101020008E48007830B91122AFF2FC11824819388D
:1010300016F048FC89480078012806D103A850F82A
:1010400029107D48193816F089FC00237A4A323A73
:101050001021184602F0F4FC0023774A193A2021A7
:10106000184602F0EDFC012E06D0042E59D0072EB2
:1010700076D00A2E75D147E17848007808B1012072
:10108000C4E779486D490978405C401CC4B2764891
:101090006A49097844546948007828BB2E2C1AD034
:1010A0002F2C11D03A2C1DD17048007828B12E2158
:1010B0006D48624A1278815404E02D216A485F4AE3
:1010C000127881540120A1E72D2067495B4A1278EC
:1010D000885401209AE730206349584A127888548E
:1010E000012093E7012091E72F2C11D03A2C16D143
:1010F0005E48007828B12E205B49504A1278885407
:1011000004E0302058494D4A1278885401207DE788
:1011100030205549494A12788854012076E7012049
:1011200074E74E48007808B101206FE74E48434904
:101130000978405C401EC4B24B4840490978445489
:101140003E48007838BB2C2C0CD02D2C1AD02F2CDC
:101150001FD12D204449394A12788854012055E77F
:1011600036E014E14148007828B12E203E49334A48
:101170001278885404E039203B49304A1278885468
:10118000012043E7392038492C4A1278885401203D
:101190003CE701203AE72D2C11D02F2C16D13348F3
:1011A000007828B12E203049244A1278885404E06F
:1011B00039212D48214A12788154012026E739200F
:1011C00029491E4A1278885401201FE701201DE793
:1011D0002248007818B901202049087016E71F48F6
:1011E000007801286CD100201B49087035B1012D11
:1011F0000AD0022D0ED0042D63D111E006AA28A139
:10120000194816F0C3FB62E006AA27A1164816F09B
:10121000BDFB5CE006AA26A1134816F0B7FB56E01A
:1012200006AA25A1104816F0B1FB50E034030020B7
:101230002531367300000000EB0500202700002058
:1012400028000020252E2A73252E2A730000000076
:1012500025730000009801083200002031000020B2
:101260002530336400000000040600203300002015
:101270002531366400000000253035640000000090
:101280002530366C640000002531366C64000000A7
:101290002530382E316600002531362E31660000AB
:1012A00025336C660000000025356C6600000000E8
:1012B00025366C660000000025386C6600000000D2
:1012C00021E006AAF6A1F84816F060FB00BF00BFB7
:1012D000DDE918733A46DDE9060116F0FFFE07D393
:1012E000DDE916733A46DDE9060116F0DFFE04D2A9
:1012F0000020EE490870022088E61A9ADDE906010E
:1013000003C2002082E600BFE9480078B8BB35B1CF
:10131000012D10D0022D1AD0042D31D123E0E54843
:101320000078401CC0B2E3490870032801D10020B6
:10133000087001206AE6DF480078401CC0B2DD4931
:101340000870052801D10020087001205EE6D94808
:101350000078401CC0B2D7490870062801D100208F
:101360000870012052E6D3480078401CC0B2D14931
:1013700008700A2801D100200870012046E601E02B
:10138000012043E60020C949087003203EE6012001
:101390003CE6F0B58DB00546FEF756FF0646C64959
:1013A00003C9CDE908010120C4490870C449088A6D
:1013B00016F00FFEC14AC2E902010021C148C2E98C
:1013C00006100020C049C2E904010AA811460862BB
:1013D00008A850F8262000231946184602F030FBD2
:1013E0002022B6490831684616F048FAB3480CC8BE
:1013F0002846FFF798FD04469CB9DDE90A0116F07E
:1014000085FE0746384616F0F1FDAD4908820222F6
:101410000821AB48103002F099FC0020FFF736FAA3
:1014200004E0032C02D10020FFF730FA0DB0F0BD2C
:10143000F0B58DB00646FEF707FF07469E49083116
:1014400003C9CDE9080104209C4908709C498868BB
:1014500016F018FE994AC2E9020100219B48C2E930
:1014600006109B48C2E904100AA81146086208A8A1
:1014700050F8272000231946184602F0E1FA2022EE
:101480008E490831684616F0F9F98C480CC8304688
:10149000FFF749FD04467CB9DDE90A0116F036FE86
:1014A00005468748856004220C21083002F04EFC76
:1014B0000020FFF7EBF904E0032C02D10020FFF736
:1014C000E5F90DB0F0BD70B58EB00546FEF7BCFE77
:1014D00006467949103103C9CDE908010120774951
:1014E00008707749B1F8A00016F073FD734AC2E99D
:1014F000020100217748C2E9061000201061506106
:101500000AA81146086208A850F8262000231946A8
:10151000184602F095FA202268490831684616F00C
:10152000ADF966480CC82846FFF7FDFC04469CB997
:10153000DDE90A0116F08DFD80B20C90BDF8300097
:101540005F49A1F8A000022214210CA802F0FEFBC2
:101550000020FFF79BF904E0032C02D10020FFF7E5
:1015600095F90EB070BDF0B58DB00646FEF76CFE75
:1015700007465149183103C9CDE9080101204F49F7
:1015800008704F49B1F8A20016F023FD4B4AC2E99A
:10159000020100214F48C2E906100020106150618D
:1015A0000AA81146086208A850F827200023194607
:1015B000184602F045FA202240490831684616F0E4
:1015C0005DF93E480CC83046FFF7ADFC044684B9CF
:1015D000DDE90A0116F03DFD85B23948A0F8A250B8
:1015E00002221621A23002F0B1FB0020FFF74EF9D3
:1015F00004E0032C02D10020FFF748F90DB0F0BD44
:1016000070B58EB00546FEF71FFE06462A4920310A
:1016100003C9CDE908010120284908702849B1F81B
:10162000A80016F0D6FC254AC2E90201002029498B
:10163000C2E90601106150610AA81146086208A8B3
:1016400050F8262000231946184602F0F9F9202206
:101650001A490831684616F011F918480CC828468E
:10166000FFF761FC04469CB9DDE90A0116F0F1FCC4
:1016700080B20C90BDF830101148A0F8A8100222DA
:101680001C210CA802F062FB0020FFF7FFF804E029
:10169000032C02D10020FFF7F9F80EB070BD000056
:1016A0002531306C66000000040600203200002066
:1016B0003100002027000020489701082006002064
:1016C000340300200088C34000004940004CDD4046
:1016D000000059400088D34070B58EB00546FEF733
:1016E000B3FD0646FE4903C9CDE908010120FD49C5
:1016F0000870FD49B1F8AA0016F06BFCF94AC2E97E
:1017000002010020F949C2E90601106150610AA8EE
:101710001146086208A850F82620002319461846EA
:1017200002F08EF92022EF490831684616F0A6F83B
:10173000EC480CC82846FFF7F6FB04469CB9DDE9E7
:101740000A0116F086FC80B20C90BDF83010E64815
:10175000A0F8AA1002221E210CA802F0F7FA00201D
:10176000FFF794F804E0032C02D10020FFF78EF875
:101770000EB070BD70B58EB00546FEF765FD06462D
:10178000D749083103C9CDE908010120D5490870BE
:10179000D549B1F8A40016F01CFCD24AC2E90201F6
:1017A0000020D349C2E90601106150610AA8114620
:1017B000086208A850F8262000231946184602F0AF
:1017C0003FF92022C7490831684616F057F8C54846
:1017D0000CC82846FFF7A7FB04469CB9DDE90A01BF
:1017E00016F037FC80B20C90BDF83010BE48A0F85F
:1017F000A410022218210CA802F0A8FA0020FFF77A
:1018000045F804E0032C02D10020FFF73FF80EB0AA
:1018100070BD70B58EB00546FEF716FD0646B049A0
:10182000103103C9CDE908010120AE490870AE4965
:10183000B1F8A60016F0CDFBAA4AC2E902010020C9
:10184000AB49C2E90601106150610AA8114608625D
:1018500008A850F8262000231946184602F0F0F890
:101860002022A0490831684616F008F89D480CC8A7
:101870002846FFF758FB04469CB9DDE90A0116F03B
:10188000E8FB80B20C90BDF830109748A0F8A61085
:1018900002221A210CA802F059FA0020FEF7F6FFE6
:1018A00004E0032C02D10020FEF7F0FF0EB070BD63
:1018B00070B58EB00546FEF7C7FC0646884918315C
:1018C00003C9CDE908010120864908708649B1F8AD
:1018D000AC0016F07EFB834AC2E902010020834976
:1018E000C2E90601106150610AA81146086208A801
:1018F00050F8262000231946184602F0A1F82022AD
:1019000078490831684615F0B9FF76480CC8284672
:10191000FFF709FB04469CB9DDE90A0116F099FBC3
:1019200080B20C90BDF830106F48A0F8AC100222C5
:1019300020210CA802F00AFA0020FEF7A7FF04E01D
:10194000032C02D10020FEF7A1FF0EB070BD70B5D0
:101950008EB00546FEF778FC06466149203103C982
:10196000CDE9080101205F4908705F49B1F8AE0078
:1019700016F02FFB5B4AC2E9020100215B48C2E975
:101980000610116151610AA81146086208A850F8B2
:10199000262000231946184602F052F82022514909
:1019A0000831684615F06AFF4E480CC82846FFF714
:1019B000BAFA04469CB9DDE90A0116F04AFB80B286
:1019C0000C90BDF830104848A0F8AE100222222139
:1019D0000CA802F0BBF90020FEF758FF04E0032C2E
:1019E00002D10020FEF752FF0EB070BD70B58EB070
:1019F0000546FEF729FC06463949283103C9CDE9D9
:101A000008010120374908703749B1F8B40016F0D1
:101A1000E0FA344AC2E9020100213448C2E9061062
:101A2000116151610AA81146086208A850F82620E1
:101A300000231946184602F003F8202229490831EC
:101A4000684615F01BFF27480CC82846FFF76BFABD
:101A500004469CB9DDE90A0116F0FBFA80B20C904D
:101A6000BDF830102048A0F8B410022228210CA89C
:101A700002F06CF90020FEF709FF04E0032C02D10C
:101A80000020FEF703FF0EB070BD70B58EB00546A6
:101A9000FEF7DAFB06461249303103C9CDE90801E9
:101AA0000120104908701049B1F8B60016F091FAFB
:101AB0000C4AC2E9020100210C48C2E9061011617A
:101AC00051610AA81146086208A850F82620002390
:101AD0001946184601F0B4FF20220249083109E0F6
:101AE0007097010820060020340300200088D340AE
:101AF0000088E340684615F0C1FEFE480CC8284641
:101B0000FFF711FA04469CB9DDE90A0116F0A1FAC3
:101B100080B20C90BDF83010F748A0F8B610022241
:101B20002A210CA802F012F90020FEF7AFFE04E013
:101B3000032C02D10020FEF7A9FE0EB070BD70B5D7
:101B40008EB00546FEF780FB0646EC4903C9CDE999
:101B500008010120E7490870E749B1F8B00016F024
:101B600038FAE44AC2E902010021E548C2E9061058
:101B7000116151610AA81146086208A850F8262090
:101B800000231946184601F05BFF2022D94908318D
:101B9000684615F073FED7480CC82846FFF7C3F90E
:101BA00004469CB9DDE90A0116F053FA80B20C90A4
:101BB000BDF83010D048A0F8B010022224210CA8A3
:101BC00002F0C4F80020FEF761FE04E0032C02D10D
:101BD0000020FEF75BFE0EB070BD70B58EB00546FE
:101BE000FEF732FB0646C549083103C9CDE90801B5
:101BF0000120C0490870C049B1F8B20016F0E9F9F7
:101C0000BC4AC2E902010021BD48C2E906101161C7
:101C100051610AA81146086208A850F8262000233E
:101C20001946184601F00CFF2022B24908316846D7
:101C300015F024FEAF480CC82846FFF774F9044697
:101C40009CB9DDE90A0116F004FA80B20C90BDF8E7
:101C50003010A948A0F8B210022226210CA802F0E8
:101C600075F80020FEF712FE04E0032C02D10020DC
:101C7000FEF70CFE0EB070BDF0B58DB00646FEF757
:101C8000E3FA07469D49103103C9CDE90801042054
:101C9000984908709849C86816F0F4F9954AC2E95D
:101CA000020100219748C2E9061000209649C2E9C6
:101CB00004010AA81146086208A850F8272000234A
:101CC0001946184601F0BCFE20228A4908316846B0
:101CD00015F0D4FD87480CC83046FFF724F90446B8
:101CE000A4B9DDE90A0116F011FA05468248C5607B
:101CF000042210210C3002F029F87F49C86883497A
:101D000003F066FB0020FEF7C1FD04E0032C02D1C6
:101D10000020FEF7BBFD0DB0F0BD70B58EB00546DE
:101D2000FEF792FA06467549183103C9CDE9080154
:101D3000002070490870704991F8340116F049F993
:101D40006C4AC2E9020100217148C2E90610002074
:101D50007049C2E904010AA81146086208A850F8AF
:101D6000262000231946184601F06AFE2022614908
:101D70000831684615F082FD5E480CC82846FFF71A
:101D8000D2F80446E4B9DDE90A0116F062F9C0B2FE
:101D90000C909DF83000584981F83401084690F8BD
:101DA00034014042C2B20021012002F06BFD012249
:101DB0002C210CA801F0CAFF0020FEF767FD04E00B
:101DC000032C02D10020FEF761FD0EB070BD70B58E
:101DD0008EB00546FEF738FA06464849203103C959
:101DE000CDE90801002043490870434991F83501C5
:101DF00016F0EFF83F4AC2E9020100214448C2E967
:101E0000061000204349C2E904010AA811460862ED
:101E100008A850F8262000231946184601F010FEA5
:101E2000202234490831684615F028FD31480CC895
:101E30002846FFF778F80446E4B9DDE90A0116F010
:101E400008F9C0B20C909DF830002B4981F835019B
:101E5000084690F835014042C2B20021022002F04B
:101E600011FD01222D210CA801F070FF0020FEF7CA
:101E70000DFD04E0032C02D10020FEF707FD0EB09B
:101E800070BD10B504462448007810B901202249DD
:101E90000870072C04D100201F490870FEF7F6FCDB
:101EA00010BD704730B589B00446FEF7CDF9054640
:101EB000124A283207CA06AB07C318220F49343129
:101EC000684615F0DBFC06A850F8252000231946CB
:101ED000184601F0B5FD0023104A1021184601F004
:101EE000AFFD00230D4A2021184601F0A9FD0C4941
:101EF000097817E02006002034030020A897010885
:101F00000088E34080841E41006AF84000002842B7
:101F100000E06F400000F03F2C000020300E000871
:101F20002D00002001EB41016A4602EB810151F8CE
:101F300025000121FEF7B6FD012C06D0042C0FD0A0
:101F4000072C18D00A2C35D11CE09F48007818B90E
:101F500001209D49087002E000209B4908702AE09A
:101F60009948007818B901209749087002E00020CC
:101F7000954908701FE00020FEF788FC0020924978
:101F8000087018E090480078012812D100F04EF94E
:101F900000BFBFF34F8F8D48006800F4E0608C49AC
:101FA0000843001D89490860BFF34F8F00BF00BF81
:101FB000FEE700BF00BF00BF09B030BD2DE9F04310
:101FC00089B006460F46FEF73FF98146814903C9AD
:101FD000CDE902010FF2002802A850F829200023C1
:101FE0001946184601F02CFD00237D4A10211846A1
:101FF00001F026FD00237A4A2021184601F020FD39
:102000007848007850B90120764908700020764958
:102010000870072275A1774815F054FC7248CDF876
:102020000080037874A2112104A816F0F9FD0023A2
:1020300004AA3021184601F003FD734800780128F6
:1020400012D1724800780A280EDA70480078401CD5
:102050006E490870674864490978405C8DF8100043
:1020600000208DF811000AE00020674908706749D8
:1020700008702A208DF8100000208DF811005A49B0
:1020800009780A31C800012304AA302101F0D8FCE4
:1020900055480078401C08EB0003AFF64C62112154
:1020A00004A816F0BDFD504909780B31C800002383
:1020B00004AA302101F0C4FC012E06D0042E1DD04C
:1020C000072E34D00A2E52D13FE001204E4908702D
:1020D00000204E490870474843490978405C401C3D
:1020E000C5B244484049097845543A2D04D13020BE
:1020F00040493D4A1278885400243AE00120424980
:1021000008700020414908703A4837490978405C16
:10211000401EC5B237483449097845542F2D04D1A3
:1021200039203449304A12788854002421E00020B4
:102130002C4908703449087034490870012406227B
:102140002C49384615F0BEFB13E001202E490870DB
:1021500000202E49087024480078401CC0B2224953
:102160000870062801D100200870002401E0002436
:1021700000BF00BF204609B0BDE8F0831CB504468F
:1021800069462046FFF71AFF01281BD1062220A12D
:10219000684615F0ECFBA8B106221FA1684615F0B1
:1021A000E6FB78B106221EA1684615F0E0FB30B9C7
:1021B0000020FEF7ADF81CA0FEF772FB02E0002045
:1021C000FEF764FB1CBD00002D0000200CED00E0BC
:1021D0000000FA050C9801082A2A2A2A2A2A000057
:1021E000300E00083400002027000020303030304E
:1021F0003030000004060020202020202020202055
:102200002020252A73000000350000203600002021
:102210003838303030300000383839353030000050
:1022200039373533323800003100000038B546F216
:102230000650009002220021684601F087FD062426
:102240002C480519C4F134022146284601F07EFDD0
:1022500046F60620009002220021684601F076FD35
:1022600038BD38B546F256000090224C02220021BB
:10227000684601F06BFD32220221A01C01F066FDD0
:1022800046F2A600009002220021684601F05EFDA1
:1022900038BD3EB546F206500290164D022200218E
:1022A00002A801F053FD0122052101A801F0F3FC71
:1022B00001220421684601F0EEFC06242846051997
:1022C000C4F134022146284601F040FD01220521D7
:1022D00001A801F03BFD01220421684601F036FD12
:1022E00046F6062002900222002102A801F02EFDEF
:1022F0003EBD000014980108F0B503460024FE4DD1
:102300002C80002099E0C41D8C427CDA33F8104008
:10231000A4F2FE74002C04DD33F81040A4F2FE7425
:1023200004E033F8104040F2FE752C1B451C33F8D6
:102330001550A5F2FE75002D05DD451C33F815502E
:10234000A5F2FE7505E0451C33F8155040F2FE7607
:10235000751B2544841C33F81440A4F2FE74002C31
:1023600005DD841C33F81440A4F2FE7405E0841CDF
:1023700033F8144040F2FE76341B2544C41C33F875
:102380001440A4F2FE74002C05DDC41C33F8144084
:10239000A4F2FE7405E0C41C33F8144040F2FE764B
:1023A000341B2544041D33F81440A4F2FE74002CA1
:1023B00005DD041D33F81440A4F2FE7405E0041D8D
:1023C00033F8144040F2FE76341B2544441D33F8A4
:1023D0001440A4F2FE74002C05DD441D33F81440B3
:1023E000A4F2FE7405E0441D33F8144040F2FE767A
:1023F000341B2544841D33F81440A4F2FE74002CD1
:1024000007DD841D00E017E033F81440A4F2FE74E9
:1024100005E0841D33F8144040F2FE76341B2C4452
:10242000072594FBF5F4A5B2B34C26882488641CD8
:10243000B14F3C8022F81650C01D8842FFF663AFB2
:10244000F0BD2DE9F05F04460E469046A079401E8F
:102450004FF47A7100FB01FAA07900FB01FBF088D0
:10246000504502DDB088584504DD0020E071401E73
:10247000BDE8F09FA188A14A2068FFF73DFF002535
:10248000F5E0B0884FF47A7190FBF1F201FB120095
:10249000C5EBC501884200DDE8E0E07910B1012814
:1024A0007ED145E0954830F81500318888423EDD00
:1024B0000120E071C5EBC501A079401E00EB400290
:1024C000C2EBC01001EBC00020818D484079C0EB09
:1024D00040118B48B83010F811001E2827DA8748C1
:1024E00030F8151086484079C0EB40128448B83067
:1024F00010F81220B8384079C0EB40138048B8304B
:1025000010F81300401CC3B27D484079C0EB401C5A
:102510007B48B83000F81C30B8384079C0EB401325
:102520007748B83000EB4300801C20F812109BE085
:1025300073484079C0EB40117148B83010F8110071
:102540001E2827DA6D4830F815106D484079C0EB29
:1025500040126B48B83010F81220B8384079C0EB00
:1025600040136748B83010F81300401CC3B26448E9
:102570004079C0EB401C6248B83000F81C30B838D5
:102580004079C0EB40135E48B83000EB4300801C3C
:1025900020F81210594830F815007188884200E080
:1025A00061E05FDAC5EBC501A079401E00EB400297
:1025B000C2EBC01001EBC0002189401AA081504835
:1025C0004079C0EB40114E48B83010F8117000212E
:1025D000B8384079C0EB40124948B83000F81210C2
:1025E00089460FE046484079C0EB40114448B83076
:1025F00000EB4100801C30F81900424941F82900E5
:1026000009F10109B945EDDB39463E4800F060FAB1
:10261000781E3C4951F82010B81E3A4A52F8200062
:102620000144F81E52F820000844032190FBF1F009
:1026300060810020E071A0893189884212DDA08983
:10264000718988420EDA98F80010481C88F800005A
:1026500001EB410108F1020000EB4100A1680160BB
:10266000A189818000E000BF00BF00BF6D1C22482F
:1026700000888542FFF605AF00BFF9E608B502F015
:1026800000FE9EE04FF0FF3269461F480BF0AAFCA7
:1026900000980488204604EBD0714910A4EB410156
:1026A00041B91A4D1A4E4FF4FA622946304615F0D8
:1026B000E5F807E0174D164E4FF4FA62294630460A
:1026C00015F0DCF812480E49C1F890004FF47A7109
:1026D0000B48A0F8941080F89640002180F89710DD
:1026E0004079C0EB40130648123000EB4302123829
:1026F000407900EB40030FE038000020DC0A0020A6
:10270000340300206C0C00207C040020B82500203D
:10271000882D0020E81D00203B4800EB8301103885
:10272000FFF78FFE142C4CD13748A0384079C0EB0E
:10273000401135488E3810F8111012384079C0EB2E
:10274000401231488E3800EB4200417000212E4883
:10275000A0384079C0EB40122B488E3800F8121098
:1027600012384079C0EB401127488E3800EB410009
:102770004078002808DD2448A038407920B901209D
:102780002149A039C87003E000201F49A039C87052
:102790001D48A0384079C0EB40111B488E3800EB33
:1027A00041004078002808DD1748A038407901280A
:1027B00003D11549A039087103E000201249A0395E
:1027C00008715FE71FB500200523104A10A1009093
:1027D00011480BF078FA02F054FD64200821CA0178
:1027E0000E4BCDE90032CDE9021000230C4A0DA1B9
:1027F0000E480DF02BFD044614B90C480DF07EFD7B
:10280000002004B010BD0000D4030020E40C002020
:102810007369675F6D6200007C0400205C06002025
:102820007D2600087369676E616C00005C0A0020F9
:1028300000BF01204E49487001F0C6F90A200DF092
:10284000E2FEFDF704FD00234AA21946184601F0F6
:10285000F7F8002347A23021184601F0F1F80023D1
:1028600049A21021084601F0EBF84FF4FA700DF080
:10287000CAFE00234AA22021102001F0E1F84FF403
:10288000FA700DF0C0FEFEF787F84BA00CF0A7FB26
:1028900004E0FDF788FF0A200DF0B5FEF9E74FF0E0
:1028A000E02252694FF47A73B2FBF3F250434FF0D7
:1028B000E022916900BF4FF0E02292698A1A8242B9
:1028C000F9D370474FF4FA700DF09DFE2849C8689F
:1028D0003D4902F07DFD0AE002F0EAFD32200DF0F4
:1028E00092FE02F043FE4FF47A700DF08CFEF3E797
:1028F00010B5044601F0BAFD10BD1FB564200A21D1
:102900004FF40062314BCDE90032CDE902100023D3
:102910002F4A30A131480DF099FC044614B92F48D4
:102920000DF0ECFC642005214FF480622C4BCDE9C6
:102930000032CDE9021000232A4A2BA12B480DF0CA
:1029400085FC044614B929480DF0D8FC0220012169
:102950000023274ACDE9001026A128480DF018FFD2
:1029600026480DF07AFFFFF72DFF002004B010BDC0
:102970003403002020202020202020202020202080
:10298000202020200000000020E6ACA220E8BF8E1E
:1029900020E4BDBF20E794A82020202020000000D4
:1029A00020E6B6B220E4BD8D20E5BC8020E585B3ED
:1029B00020202020000000006D61696E5F696E6953
:1029C00074206F6B0D0A000000002842F80C0020F4
:1029D000312800086D61696E00000000F8140020C5
:1029E00078150020C528000870776D007819002040
:1029F000F128000874696D6572310000F819002033
:102A00002DE9F04F0C461546A3EB040C0CF1010820
:102A1000404E002721466A1C12E050F821C050F8B1
:102A20002290CC4504DC8C46491C50F82CC003E0B5
:102A30009446521C50F82CC0B9467F1C46F829C059
:102A4000A94201DC9A42E8DD07E08C46491C50F8B7
:102A50002CA0BC467F1C46F82CA0A942F5DD07E05F
:102A60009446521C50F82CA0BC467F1C46F82CA063
:102A70009A42F5DD4FF0000C07E056F82CB0A14665
:102A8000641C40F829B00CF1010CC445F5DBBDE82D
:102A9000F08F2DE9F04107460D461446A54201D1BD
:102AA000BDE8F081281900EBD0714E10324629465E
:102AB0003846FFF7EEFF2246711C3846FFF7E9FF64
:102AC0002346324629463846FFF79AFF00BFE7E71C
:102AD0002DE9F04781460D46012416E0002710E05D
:102AE0003819461E3019A84201DA301900E0681E74
:102AF00080464346324639464846FFF781FF08F193
:102B000001073819A842EBDB6400AC42E6DBBDE804
:102B1000F0870000241A002010B500214FF000605B
:102B20000AF02AF810BD10B50BF054FE0AF0CDF8EB
:102B30000BF067FE10BD70B5FFF7EEFF1748006899
:102B40004FF47A72B0FBF2F1481EB0F1807F00D3EF
:102B50001BE0481E4FF0E022506150170F22002862
:102B600007DA13071D0E0E4B00F00F04241F1D552E
:102B700003E013071C0E0B4B1C5400BF00204FF04A
:102B8000E02290610720106100BF00F0B4FA06A0B7
:102B90000CF09AFA14F058FE70BD00005C010020A1
:102BA00018ED00E000E400E075617274310000008F
:102BB000704700BFFEE700BFFEE700BFFEE77047BB
:102BC0007047704770477047704700007FB50546F3
:102BD0000C4625B94A22F649F6A00CF0DDFA24B9D4
:102BE0004B22F349F8A00CF0D7FAEE6B2068009066
:102BF000207900F00F00082803D10020ADF8040070
:102C000008E0207900F00F00092803D14FF480502C
:102C1000ADF804002079C0F3011018B90020ADF818
:102C2000060007E02079C0F30110012802D140031B
:102C3000ADF806002079C0F3811018B90020ADF876
:102C4000080011E02079C0F38110012804D14FF46D
:102C5000C060ADF8080007E02079C0F381100228B9
:102C600002D14002ADF808000020ADF80C000C20A5
:102C7000ADF80A006946306808F0E9FB01213068C8
:102C800008F029FD002004B070BD70B58CB0054679
:102C9000EC6BEE6CA86CC0F38F216161012240F2F5
:102CA0002441206808F044FD0121084603F04EF855
:102CB0000121022003F04AF8A06809F051FA2068C7
:102CC000001D01903068029000200390A86CC0F3B2
:102CD0008F2004900020059080200690002007900F
:102CE00008902020099000020A9000200B9001A972
:102CF000A06809F00CFBE06809F0BEFD012202218A
:102D0000A06809F041FC01224021206808F0BAFDCA
:102D10000121A06809F0CAFB207C8DF8000000208A
:102D20008DF801008DF8020001208DF8030068463F
:102D300009F0D3FE0CB070BD2DE9F04105460E46FA
:102D40001746B84625B97422A3499AA00CF024FA74
:102D5000EC6B032E29D0102E13D0112E2CD194F908
:102D6000040000F01F02012191409C4A430942F8EF
:102D7000231000BF002240F22551206808F0D8FC43
:102D80001AE094F9040000F01F0201219140420969
:102D9000920002F1E022C2F8001100BF012240F2CD
:102DA0002551206808F0C4FC06E0B8F5007F02D188
:102DB0002846FFF76AFF00BF00BF0020BDE8F08192
:102DC00070B505460E4625B99522854979A00CF0C7
:102DD000E3F9EC6B288B00F48060B0B120680088C8
:102DE00000F0800040B9012240F22661206808F01E
:102DF0009FFC4FF0FF3070BD20688680012240F2BA
:102E00002661206808F094FC08E02068868000BFF6
:102E10002068008800F040000028F9D00120EAE78F
:102E200070B5044624B9B0226E4962A00CF0B4F922
:102E3000E56B4FF0FF362868008800F0200010B1E5
:102E400028688088C6B2304670BD2DE9F04105463D
:102E5000EC6B0EF015FA8046A06809F026FC61695B
:102E60000E1AA069371AA66140460EF00DFA2FB16E
:102E7000032040EA072128460EF069FE206808F08A
:102E800043FEE06809F0F8FCBDE8F0812DE9F0416F
:102E90000546EC6B0EF0F4F90746D4E905100E1A5E
:102EA0000021A16138460EF0EFF92EB1032040EA6F
:102EB000062128460EF04BFEE06809F0DDFCBDE877
:102EC000F08170B50546EC6B24B9F622464947A05F
:102ED0000CF062F940F22551206809F05CF868B105
:102EE0000121206808F0C8FF18B9012128460EF01A
:102EF0002EFE40F22551206809F0D9F840F2244115
:102F0000206809F048F810B12846FFF79EFF40F20C
:102F10002661206809F03FF890B1288B00F48060AA
:102F200018B1022128460EF012FE002240F226615E
:102F3000206808F0FDFB40F22661206809F0B7F830
:102F40000821206808F098FF012802D12846FFF7E1
:102F500067FF70BD10B50BF03DFC2848FFF7B1FFCF
:102F60000BF04FFC10BD10B50BF034FC2348FFF7FD
:102F70008DFF0BF046FC10BD10B50BF02BFC20486C
:102F8000FFF79FFF0BF03DFC10BD10B50BF022FCCE
:102F90001B48FFF77BFF0BF034FC10BD10B50BF0A6
:102FA00019FC1848FFF78DFF0BF02BFC10BD00003B
:102FB0005C98010873657269616C20213D20525450
:102FC0005F4E554C4C00000063666720213D205247
:102FD000545F4E554C4C00006C98010880E100E0B5
:102FE0007A980108859801089098010875617274B3
:102FF00020213D2052545F4E554C4C00EC1A0020CD
:10300000401B0020941B002010B50BF0E3FB604830
:10301000FFF73CFF0BF0F5FB10BD10B501210520BB
:1030200002F0BFFE0121880302F0BBFE0121052052
:1030300002F0B7FE0121480402F0DCFE0121092064
:1030400002F0AFFE0121880402F0D4FE10BD08B5E5
:1030500002208DF8020004208DF803000002ADF874
:10306000000069464B4807F0D5FC18208DF8030096
:103070004FF40070ADF800006946464807F0CAFCFE
:1030800004208DF803000820ADF80000694641488F
:1030900007F0C0FC18208DF803000420ADF80000F4
:1030A00069463C4807F0B6FC04208DF80300400256
:1030B000ADF800006946384807F0ACFC18208DF8E0
:1030C00003004FF48060ADF800006946324807F015
:1030D000A1FC08BD38B5044620798DF80000002019
:1030E0008DF8010001208DF802008DF8030068467C
:1030F00009F0F3FC38BD1CB5284903C9CDE900012E
:10310000FFF78BFFFFF7A3FF254C4FF4E130009052
:103110002448254908640846DDE90012C0E9111277
:103120002046FFF7D7FF234640F203721FA11E4837
:103130000EF0E7FC1F4C4FF4E130009019481E4997
:1031400008640846DDE90012C0E911122046FFF7C5
:10315000C1FF234640F2037218A117480EF0D1FCBC
:10316000184C4FF4E13000900E48094908640846B5
:10317000DDE90012C0E911122046FFF7ABFF23463C
:1031800040F2037210A102480EF0BBFC1CBD00000F
:10319000941B002000080140000C01409C9801088D
:1031A0003C00002048980108EC1A002075617274F8
:1031B0003100000058000020401B0020756172742F
:1031C000320000007400002075617274330000004A
:1031D0000146652907D2FB4A02EB01100268521C26
:1031E00012B9002000E0002070472DE9F0410746A9
:1031F0000D461646E8B2FFF7EBFF04460CB9BDE8F2
:10320000F0812EB9A28991B2A06807F00BFE04E00C
:10321000A28991B2A06807F0DAFD00BFEFE72DE9BF
:10322000F04107460D460026E8B2FFF7D1FF0446FD
:1032300014B93046BDE8F081A28991B2A06807F0C8
:10324000AEFC08B9002600E001263046F2E7F8B5EA
:1032500007460E461446F0B2FFF7BAFF054605B919
:10326000F8BD0121686802F09CFDA88980B2ADF824
:10327000000010208DF8030003208DF802001CB917
:1032800010208DF803000EE0012C03D104208DF8EE
:10329000030008E0022C03D148208DF8030002E06F
:1032A00028208DF803006946A86807F0B3FB00BF2B
:1032B000D6E70246002106E001208840904201D175
:1032C00008467047491C2029F6DB4FF0FF30F8E72D
:1032D0002DE9F05F83460D4616461F46DDF828802F
:1032E0004FF0FF34E8B2FFF773FF8146B9F1000FEA
:1032F00002D10620BDE8F09FD9F80C00FFF7D9FFF6
:103300000446002C01DB102C01D30620F2E70DF05F
:10331000B7FF824604EB4400AB4931F92000A842D4
:1033200019D104EB440001EB80004068B84212D18F
:1033300004EB440001EB80004088B0420BD104EB69
:10334000440001EB80008068404504D150460DF0F8
:103350009BFF0020CEE704EB44009B4931F920009D
:10336000401C20B150460DF08FFF0720C2E728B265
:1033700004EB4401944A22F8210004EB4400114676
:1033800001EB8000476004EB440102EB81014E80B9
:1033900004EB4400114601EB8000C0F80880504661
:1033A0000DF072FF0020A5E72DE9F04180460D46A3
:1033B0004FF0FF34E8B2FFF70BFF064616B90620C0
:1033C000BDE8F081F068FFF774FF0446002C01DBD4
:1033D000102C01D30620F3E70DF052FF074604EB53
:1033E0004400794931F92000401C20B938460DF0DD
:1033F0004BFF0020E4E74FF0FF3004EB4401724A3A
:1034000022F82100002004EB440102EB8101486016
:1034100004EB440102EB8101488004EB440102EB20
:103420008101886038460DF02FFF0020C8E72DE9A4
:10343000FF5F894617464FF0FF3609F0FF00FFF7A0
:10344000C7FE04461CB9062004B0BDE8F09F012F5A
:1034500065D1E068FFF72DFF0646002E01DB102E38
:1034600001D30620F0E70DF00BFF834606EB460084
:10347000554931F92000401C20B958460DF004FF91
:103480000620E1E706EB4600504901EB80050121EB
:10349000606802F086FCA08980B2ADF80C0048207C
:1034A0008DF80F0003208DF80E0003A9A06807F027
:1034B000B1FA287A8DF8080002208DF809008DF8FD
:1034C0000A0001208DF80B0002A809F006FB6868CD
:1034D000009000208DF8040006EB46003A4901EB0D
:1034E0008000408820B1012806D002280CD107E0D6
:1034F00008208DF8050007E00C208DF8050003E09A
:1035000010208DF8050000BF00BF01208DF80600D7
:10351000684602F079FD58460DF0B6FE28E02FBB54
:10352000D4F80CA05046FFF7C4FE8046B8F1000F57
:1035300002DBB8F1100F01D3002004E008EB4800D3
:10354000224901EB800005460DB906207CE768683A
:10355000009000208DF8040008208DF80500002060
:103560008DF80600684602F04FFD01E006206BE78B
:10357000002069E710B50022154916A00FF046F8A3
:103580000446204610BD10B5044604EB44010F4A22
:1035900002EB810191F9080002F068FE04EB44009F
:1035A000094901EB8000406858B104EB44020B4626
:1035B00003EB8202906804EB440203EB8202516841
:1035C000884710BDA498010890000020F49E0108CF
:1035D000B49F010870696E0010B50BF0FBF8002075
:1035E000FFF7D1FF0BF00DF910BD10B50BF0F2F89D
:1035F0000120FFF7C8FF0BF004F910BD10B50BF068
:10360000E9F80220FFF7BFFF0BF0FBF810BD10B583
:103610000BF0E0F80320FFF7B6FF0BF0F2F810BD57
:1036200010B50BF0D7F80420FFF7ADFF0BF0E9F869
:1036300010BD10B50BF0CEF8202002F0CBFD10B17C
:103640000520FFF7A0FF402002F0C4FD10B10620C6
:10365000FFF799FF802002F0BDFD10B10720FFF7B2
:1036600092FF4FF4807002F0B5FD10B10820FFF713
:103670008AFF4FF4007002F0ADFD10B10920FFF792
:1036800082FF0BF0BEF810BD10B50BF0A3F84FF49D
:10369000806002F09FFD10B10A20FFF774FF4FF425
:1036A000006002F097FD10B10B20FFF76CFF4FF4A4
:1036B000805002F08FFD10B10C20FFF764FF4FF433
:1036C000005002F087FD10B10D20FFF75CFF4FF4B2
:1036D000804002F07FFD10B10E20FFF754FF4FF441
:1036E000004002F077FD10B10F20FFF74CFF0BF008
:1036F00088F810BD0CB501900BE06E21009102E03E
:103700000099491E009100990029F9DC0199491E90
:10371000019101998142F0DC0CBD0422F94B1A6041
:103720005202F94B5A61082118E04FF48062F64BBF
:103730005A6100F0800222B14FF40042F34B1A604C
:1037400004E04FF40042F14B1B1D1A604FF48062FD
:10375000ED4B1A614206100E4A1ED1B20029E4DC7C
:103760000422E84B1B1F1A6070470422E54B1A60C5
:103770005202E54B1A61082118E04FF48062E24BD7
:103780005A6100F0800222B14FF40042DF4B1A6010
:1037900004E04FF40042DD4B1B1D1A604FF48062C1
:1037A000D94B1A614206100E4A1ED1B20029E4DC40
:1037B0000422D44B1B1F1A60704700B5D448007810
:1037C000282804DAD2480078401CD14908708120AA
:1037D000FFF7A3FFCE480078FFF79FFF00BD00B5BD
:1037E000CB480078192804DDC9480078401EC84934
:1037F00008708120FFF791FFC5480078FFF78DFF23
:1038000000BD00B5C2480078282803DCC048007815
:10381000192802DA2020BE4908708120FFF77DFFB9
:10382000BB480078FFF779FF00BD10B50420B5490B
:1038300008608002B44948616420FFF75BFF4FF4E1
:103840008050B14908611420FFF754FFE220FFF7D0
:1038500064FF0520FFF74EFF2C20FFF75EFF0520D9
:10386000FFF748FF2E20FFF758FF0520FFF742FF24
:103870002F20FFF752FF0520FFF73CFF2320FFF723
:103880004CFF8120FFF749FF1920FFF746FFA220D8
:10389000FFF743FF9F48407830B9C820FFF73DFF4E
:1038A000A020FFF73AFF05E0C020FFF736FFA12078
:1038B000FFF733FF4020FFF730FFAF20FFF72DFF6A
:1038C00004209049091F086010BD08B50121084671
:1038D00002F067FA0121904807F0D4FB01218F48DC
:1038E00007F0D0FB0121342002F05BFA4FF4E050E6
:1038F000ADF8000010208DF8030003208DF80200C1
:103900006946814807F086F84FF40040ADF80000A2
:1039100069467E48103807F07DF80420ADF80000B5
:1039200069467848143807F075F808BD30B5054683
:103930000C4605F1B001C8B2FFF7EFFE75484078BC
:10394000012801D1201DC4B2102101EB1410FFF792
:10395000E4FE04F00F00FFF7E0FE30BD2DE9F04774
:1039600004460D461E46DDF82080082E20D1114663
:1039700002F10803002018E0B8F1010F0CD111F892
:1039800000906FEA090904F8009013F800906FEABC
:10399000090905F8009007E011F8009004F800907C
:1039A00013F8009005F80090401C0828E4DB45E07F
:1039B000102E43D1114602F1080302F1100702F163
:1039C000180C002038E0B8F1010F20D111F8009058
:1039D0006FEA090904F8009013F800906FEA0909EA
:1039E00009F0FF0A00F1080904F809A017F800908F
:1039F0006FEA090905F800901CF800906FEA0909C0
:103A000009F0FF0A00F1080905F809A013E011F810
:103A1000009004F8009013F800A000F1080904F8E1
:103A200009A017F8009005F800901CF800A000F11C
:103A3000080905F809A0401C0828C4DBBDE8F08788
:103A40002DE9FF4F85B08346164698460024DFF8DF
:103A5000D09009F1800A002766E03578802D13DACE
:103A6000304800EB051002900823CDF80080514645
:103A70004846029AFFF772FF09F108090AF1080A9D
:103A800007F10800C7B237E0701C064600780490C2
:103A9000701C0646007803900498802802DB039887
:103AA000802814DA20251F4800EB05100290082317
:103AB000CDF8008051464846029AFFF74FFF09F1C2
:103AC00008090AF1080A07F10800C7B239E002AB99
:103AD0002846DDE9032100F08DF81023CDF80080A1
:103AE00051464846029AFFF739FF09F110090AF1D9
:103AF000100A07F11000C7B2761C601C84B2802F38
:103B000012DB1EE0141401400010014010080140B7
:103B1000500100203403002000013000000230007A
:103B2000E81B0020CC9F0108307808B1012000E09C
:103B30000020102C01DA012100E0002108400028BB
:103B40008BD100BF0BF0FF010698C0F3C700FFF751
:103B5000EDFE002405E02149085DFFF706FE601C2C
:103B600084B2BC42F7DB0BF0FF010123069A03EBA2
:103B7000E202D0B2FFF7DAFE002406E017498031F6
:103B8000085DFFF7F2FD601C84B2BC42F6DB09B0B1
:103B9000BDE8F08F10B5002311A219461846FFF7B3
:103BA0004FFF00230EA210211846FFF749FF002304
:103BB0000BA220211846FFF743FF002308A2302163
:103BC0001846FFF73DFF10BD10B5FFF77EFEFFF76B
:103BD0002CFEFFF7DFFF10BD70470000E81B002040
:103BE00020202020202020202020202020202020D5
:103BF0000000000070B504460D46002121E0C1EB35
:103C0000C10000EB80001C4E305CA04218D1C1EB1B
:103C1000C10000EB800030444078A84210D1C1EBD5
:103C2000C10000EB800030448078904208D1C1EBA5
:103C3000C10000EB80003044C01C186088B270BD29
:103C4000491CC829DBDB0C48C01C18600020F6E7C3
:103C5000024600210BE001EB8110084B185C9042FA
:103C600004D101EB81101844401C7047491C1429F1
:103C7000F1DB0248401CF8E7CCA7010824C3010887
:103C800010B5A02000F0AAF908B9012010BD00F07D
:103C9000DCF80020FAE72DE9F04780460C4616468E
:103CA00000275748007838B9012055490870FFF7B8
:103CB000E7FF08B900BFFEE72046E11704EB1161FA
:103CC000C1F30729A02040EA4900C7B22046E11706
:103CD00004EB11610912A4EB01218CB272B600F061
:103CE0009CF8384600F0C0F800F00DF900B128E06B
:103CF000E0B200F0B9F800F006F900B121E000F000
:103D00008CF847F0010000F0AFF800F0FCF800B1CB
:103D100017E000250DE000F0D6F808F80500701E49
:103D2000A84202D000F00DF901E000F023F9681C70
:103D300085B2B542EFDB00F088F862B60120BDE83D
:103D4000F08700F082F862B60020F8E72DE9F05F16
:103D50000746884691464FF0000A2948007838B94E
:103D6000012027490870FFF78BFF08B900BFFEE765
:103D700072B64446002535E015B104F0070030BBAB
:103D800000F063F8002615E000F047F82046E11740
:103D900004EB1161C1F3072BA02040EA4B0000F0B7
:103DA000FF0A504600F060F800F0ADF800B903E0FB
:103DB000701C86B2642EE7DB00BF642E00D119E0D0
:103DC000E0B200F051F800F09EF800B112E0785D2A
:103DD00000F04AF800F097F800B10BE0601C84B2E4
:103DE000681C85B24D45C7DB00F02FF862B6012094
:103DF000BDE8F09F00F029F862B60020F8E7000067
:103E00005101002008B50020009002E00098401CFD
:103E1000009000980828F9D308BD10B54FF4007041
:103E200076490861401076490860FFF7EBFF4FF4D0
:103E3000007072494861FFF7E5FF4FF480707049E8
:103E4000091D0860FFF7DEFF10BD10B54FF40070CC
:103E50006A49486140106A490860FFF7D3FF4FF490
:103E600000706649086110BD70B50446002527E062
:103E700004F0800020B14FF400706049086103E055
:103E80004FF400705D494861FFF7BCFF4FF480704C
:103E90005B490860FFF7B6FF4FF480705849091D71
:103EA0000860072D06D108600860086008604000BF
:103EB000524908616006040EFFF7A4FF681CC5B2F2
:103EC000082DD5DB70BD70B50024002517E0600615
:103ED000040E4FF480704A490860FFF793FF47488B
:103EE000806800F4007008B1601CC4B24FF48070A8
:103EF0004349091D0860FFF785FF681CC5B2082DFE
:103F0000E5DB204670BD10B54FF400703B490861F9
:103F1000FFF778FF4FF4807039490860FFF772FFB0
:103F20003648806800F4007008B1012400E00024E5
:103F30004FF480703249091D0860FFF763FF204687
:103F400010BD10B54FF400702C494861FFF75AFFBF
:103F50004FF480702A490860FFF754FF4FF48070D7
:103F60002749091D0860FFF74DFF4FF400702349F2
:103F7000086110BD10B54FF4007020490861FFF7CB
:103F800041FF4FF480701E490860FFF73BFF4FF47C
:103F900080701B49091D0860FFF734FF10BD08B58C
:103FA0000121142001F0FDFE4FF48070ADF80000F7
:103FB00003208DF8020014208DF803006946104894
:103FC000103806F027FD4FF40070ADF80000694688
:103FD0000A4806F01FFDFFF738FF08BD70B504461C
:103FE000FFF7DDFFFFF719FF2046FFF73DFFFFF763
:103FF0008AFF0546FFF729FF284670BD00100140E3
:104000001008014010B51021F94806F0C8FD08B9A4
:10401000012010BD0020FCE710B52021F44806F077
:10402000BEFD08B9012010BD0020FCE710B5082135
:10403000EF4806F0B4FD08B9012010BD0020FCE7F0
:1040400010B54021EA4806F0AAFD08B9012010BDCC
:104050000020FCE710B54021E54806F0A0FD30B98E
:104060001021E34806F09BFD08B9012010BD402156
:10407000DF4806F094FD30B91021DD4806F08FFDD1
:1040800008B10220F2E74021D94806F088FD30B19E
:104090001021D74806F083FD08B90320E6E7002089
:1040A000E4E710B54021D24806F079FD30B920216F
:1040B000CF4806F074FD08B9012010BD4021CC485E
:1040C00006F06DFD30B92021C94806F068FD08B141
:1040D0000220F2E74021C64806F061FD30B1202100
:1040E000C34806F05CFD08B90320E6E70020E4E7DA
:1040F00008B50121082001F054FE1020ADF80000A1
:1041000048208DF8030003208DF802006946B84866
:1041100006F080FC2020ADF800006946B44806F0A7
:1041200079FC0820ADF800006946B14806F072FC41
:104130004020ADF800006946AD4806F06BFC08BDB4
:104140000020AC4908754875AB48AC49086014209C
:1041500048714FF47A700881487900EBD0714910AA
:10416000A64A1171002011468872012008730220AE
:10417000C87203204873A248A249086014204871FD
:104180004FF47A700881487900EBD07149109D4A4C
:104190001171002011468872042008730520C8722E
:1041A00006204873984899490860142048714FF4D4
:1041B000FA600881487900EBD0714910934A117177
:1041C0000020114688720A2008730B20C8720C2048
:1041D00048738F488F490860142048714FF47A70F3
:1041E0000881487900EBD07149108A4A117100208A
:1041F00011468872072008730820C8720920487386
:1042000085488649086014204871002008811146BD
:10421000487900EBD0714910804A11710020114695
:1042200088720873C87248730D2088730E20C87393
:104230007B487C490860142048710020088175493A
:10424000487900EBD0714910764A1171002011466F
:1042500088720873C87248730F2088731020C8735F
:10426000704710B5FFF76CFFFFF742FF10BD6149C3
:10427000497D604A50541146497D491CC9B2517567
:10428000142901DB0021517570475A48007D594AB5
:10429000527D904201D1002070475648007D554A1A
:1042A000115C1046007D401CC0B21075142801DB63
:1042B000002010750846EFE770B504462068804777
:1042C000054635B1012D1DD0022D5FD0032D6FD1D4
:1042D00085E0A07AA8B120796179884202DD607911
:1042E00020710EE0207918B12079401E207108E07D
:1042F0000020E080A072E07A002802DDE07AFFF77B
:10430000B6FFB1E0A07A01282ED0207961798842E9
:1043100002DA6079207138E02079617949008842B9
:1043200003DA2079401C20712FE0A07A30B9207B7D
:10433000002816DD207BFFF79AFF12E0A07A022802
:1043400006D1A07B00280CDDA07BFFF790FF08E0E2
:10435000A07A032805D1E07B002802DDE07BFFF78F
:1043600086FF0120A07210E0208900280DDDE08882
:104370002189884209DAE088401C80B2E0802189E6
:10438000884202D1607BFFF772FF6DE0A07A98B996
:1043900020796179884202DA607920711EE0207903
:1043A00061794900884204DA2079401C207115E0C7
:1043B00059E00220A07211E0A07A01280ED12079E4
:1043C0006179884202DD6079207107E0207918B1B7
:1043D0002079401E207101E00220A07244E0A07A02
:1043E00070BB2079617988421EDA6079207139E0EA
:1043F000000C0140581D002005400008E81C00206A
:1044000019400008F81C00202D400008081D00205D
:1044100041400008181D002055400008281D0020BC
:10442000A3400008381D00202079617949008842A6
:1044300003DA2079401C207114E00320A07211E0FF
:10444000A07A01280ED120796179884202DD607955
:10445000207107E0207918B12079401E207101E019
:104460000320A07200E000BF00BF70BD10B50D4872
:10447000007820B901200B490870FFF7F2FE0A48C6
:10448000FFF71AFF0948FFF717FF0948FFF714FF66
:104490000848FFF711FF0848FFF70EFF0748FFF72E
:1044A0000BFF10BD52010020E81C0020F81C00206A
:1044B000081D0020181D0020281D0020381D002088
:1044C00000206D49087010206C490860704738B5AD
:1044D00004460121042001F064FC7020ADF80000C6
:1044E00003208DF8020010208DF803006946634810
:1044F000103806F08FFA6048047034B1012C09D0EE
:10450000022C0BD0032C12D10DE020205B49091D99
:10451000086011E02020594908600DE0202057492B
:10452000091D086008E020205449086004E02020AC
:104530005249091D086000BF00BF10204F49091DE6
:10454000086038BD10204D49091D086070471020D3
:104550004A4908607047082115E000F080021AB14E
:104560004022464B1A6003E04022444B1B1D1A6058
:104570004206100E2022414B1A6040F001001B1D24
:104580001A604A1ED1B20029E7DC7047082117E003
:1045900020223A4B1B1D1A6000F080021AB1402203
:1045A0001B1F1A6003E04022344B1B1D1A60420699
:1045B000100E2022314B1A6040F001004A1ED1B289
:1045C0000029E5DC7047082116E000F080021AB1EE
:1045D00040222A4B1A6003E04022284B1B1D1A6020
:1045E0004206100E2022254B1B1D1A6040F00100D0
:1045F0001B1F1A604A1ED1B20029E6DC7047082151
:1046000016E020221D4B1A6000F0800212B14022F9
:104610001A6003E04022194B1B1D1A604206100E5F
:104620002022164B1B1D1A6040F001004A1ED1B219
:104630000029E6DC704710B504460F48007830B119
:10464000012808D002280AD0032810D10BE0204608
:10465000FFF781FF10BD2046FFF7D1FFFAE72046A4
:10466000FFF7B1FFF6E72046FFF790FFF2E720469D
:10467000FFF771FFEEE70000530100201008014032
:10468000002068490870402067490861704738B5C4
:1046900004460121102001F084FB4FF4E070ADF8D6
:1046A000000003208DF8020010208DF803006946F9
:1046B0005D4806F0AFF95B48047034B1012C08D0B6
:1046C000022C0AD0032C10D10BE0802056494861FF
:1046D0000FE08020544908610BE080205249486176
:1046E00007E080205049086103E080204E4948617E
:1046F00000BF00BF40204C49486138BD40204A49B6
:10470000486170474020484908617047082115E01A
:1047100000F0800222B14FF48072434B1A6103E033
:104720004FF48072404B5A614206100E80223E4B7D
:104730001A6140F001005A614A1ED1B20029E7DC3B
:104740007047082115E08022374B5A6100F0800243
:1047500012B19A151A6103E04FF48072324B5A611C
:104760004206100E8022304B1A6140F001004A1EB2
:10477000D1B20029E7DC7047082115E000F0800283
:1047800022B14FF48072284B1A6103E04FF480721B
:10479000254B5A614206100E8022234B5A6140F08D
:1047A00001001A614A1ED1B20029E7DC70470821D6
:1047B00015E080221C4B1A6100F0800212B19A159C
:1047C0001A6103E04FF48072174B5A614206100ED3
:1047D0008022154B5A6140F001004A1ED1B20029D7
:1047E000E7DC704710B504460E48007830B1012868
:1047F00008D002280AD0032810D10BE02046FFF78A
:1048000085FF10BD2046FFF7D2FFFAE72046FFF7ED
:10481000B3FFF6E72046FFF794FFF2E72046FFF7E5
:1048200075FFEEE7540100200010014010B5002094
:10483000FFF74DFE0020FFF72AFF10BD70B50646BA
:104840000C4615462648007820B9012024490870F6
:10485000FFF7ECFF012E0AD1FFF774FE2046FFF7A9
:10486000EAFE2846FFF7E7FEFFF771FE09E0FFF7D3
:1048700045FF2046FFF7B6FF2846FFF7B3FFFFF7D7
:1048800041FF70BD70B506460C46154614480078C9
:1048900020B9012012490870FFF7C8FF012E0FD17F
:1048A000FFF750FE1CB91120FFF7C5FE02E01220F1
:1048B000FFF7C1FE2846FFF7BEFEFFF748FE0EE0F9
:1048C000FFF71CFF1CB91120FFF78CFF02E012203C
:1048D000FFF788FF2846FFF785FFFFF713FF70BD3E
:1048E0005501002070B504460D460026002247A160
:1048F00004F1480008F0DFFDE06E10B94FF47A7063
:10490000E0662946204600F017F90646304670BD9D
:1049100070B50646304608F0F9F9044614B1207D1A
:10492000082801D0002070BDE56B2846FBE72DE983
:10493000F04104460E461746206C006898B14FF0CF
:10494000FF3104F1480008F03CFE206C3A46314645
:10495000036820469847054604F1480008F03DFFEB
:104960002846BDE8F0810020FBE72DE9FE4307461D
:104970000C4615461E46DDF82880ADF8004005F0CF
:104980000400ADF802001FFA88F0ADF804000296AA
:10499000012269463846FFF7CAFF8146B9F1000F88
:1049A00002DD4046BDE8FE834846FBE72DE9FE43B5
:1049B00005460E4617469846DDF8289025B975221B
:1049C000164917A00AF0E8FBADF8006007F00400F4
:1049D000ADF80200BDF8020040F00100ADF80200A1
:1049E0001FFA89F0ADF80400CDF80880012269466D
:1049F0002846FFF79CFF0446002C02DD4846BDE830
:104A0000FE832046FBE70020704700006932635FA9
:104A10006275735F6C6F636B0000000038CC010837
:104A200062757320213D2052545F4E554C4C00005E
:104A30002DE9F84F06460C4615461F46D6F83CA011
:104A4000BAF1000F04D125224A494BA00AF0A4FB79
:104A500025B9262247494CA00AF09EFB1FFA84F88C
:104A60004FF6FF7000EA24492B464A46414650461D
:104A70000097FFF79BFFBDE8F88F2DE9F84F06463A
:104A80000C4615461F46D6F83CA0BAF1000F04D1DB
:104A90003922424938A00AF07FFB25B93A223F4922
:104AA00039A00AF079FB1FFA84F84FF6FF7000EA8C
:104AB00024492B464A46414650460097FFF755FF8A
:104AC000BDE8F88F2DE9F047804689461446D8F8AE
:104AD0003C5025B94C22324927A00AF05DFBB9F1C0
:104AE000200F09D0B9F1210F0DD0B9F1220F0ED04E
:104AF000B9F1230F1CD10DE0B5F8440040F00400DB
:104B0000A5F8440015E02088A5F8460011E02068CB
:104B1000E8660EE027462846D7E90012FFF707FFB0
:104B20000646002E03DA6FF00700BDE8F08700E0CC
:104B300000BF00BF0020F8E770B504460E4624B958
:104B40006D2218490CA00AF027FB2546EC630820CB
:104B5000287500206862A862E86213482863134839
:104B600068631348A86303223146284608F0F4F826
:104B7000002070BD4BCC010862757320213D20528E
:104B8000545F4E554C4C000062756666657220217C
:104B90003D2052545F4E554C4C0000005FCC010844
:104BA00074CC01088BCC0108314A00087B4A00080C
:104BB000C54A000870B504460121A26820689047E4
:104BC000206900B917E008F072F805460DE008F01A
:104BD0006EF8401BE169884202D96FF0010070BD98
:104BE000E169491C48080BF00EFD216920688847DF
:104BF0000028ECD000BF204600F0FBF90020EEE7D3
:104C000010B504460021D4E900029047204600F088
:104C1000F0F90021A2682068904710BD10B5044645
:104C20000121D4E9000290472046FFF7C3FF204648
:104C300000F0DFF90021D4E900029047204600F09F
:104C4000D8F90021A2682068904710BD10B504462D
:104C50000021D4E900029047204600F0CAF920461E
:104C6000FFF7A8FF204600F0C4F90121D4E90002B3
:104C70009047204600F0C5F910BD2DE9F0470746E2
:104C800088467C6F072618E00021A26820689047BC
:104C900048FA06F000F001094946D4E900029047BD
:104CA000204600F0A6F92046FFF784FF002803DA2B
:104CB0006FF00100BDE8F087761E002EE4DA0021D7
:104CC000A26820689047204600F093F925462C46BC
:104CD0000121D5E900029047284600F08AF92846CC
:104CE000FFF768FF002802DA6FF001000CE0E968C6
:104CF0002868884708B9012000E00020824600218A
:104D0000AA6828689047504600BFD3E72DE9F041D4
:104D100006460025746F0121D4E900029047204621
:104D200000F067F9002719E06806050E2046FFF736
:104D300041FF002803DA6FF00100BDE8F081E1686F
:104D40002068884708B145F001050021A268206865
:104D50009047204600F055F9781CC7B2082FE3DBD6
:104D60002846EAE72DE9F04781460D460026AF6860
:104D7000B5F80480A87800F0200A15E03978484694
:104D8000FFF77BFF0446002C03DCBAF1000F05D0CF
:104D900024B9A8F101087F1C761C05E014B9002095
:104DA000BDE8F0872046FBE7B8F1000FE6DC3046AF
:104DB000F6E770B505460E466C6F1EB10021D4E9CA
:104DC00000029047204600F014F92046FFF7F2FE5B
:104DD000002802DA6FF0010070BD0021A26820688F
:104DE00090470020F8E72DE9F04781460C46002760
:104DF000D4F80880A688B4F802A01AE04846FFF765
:104E000085FF0546002D03DB88F800507F1C00E07D
:104E100011E008F10108761E0AF0400048B9314659
:104E20004846FFF7C6FF0546002D02DA2846BDE8D2
:104E3000F087002EE2DC00BF3846F8E72DE9F047A6
:104E4000064688461446D6F874900027002513E0DD
:104E500041463046FFF711FF0746012F01D0A5421A
:104E600000D10BE04846FFF7F1FE484600F0C9F8D4
:104E70004846FFF7C5FE6D1CA542E9DD00BF384678
:104E8000BDE8F0872DE9F84F80460D46B5F8029051
:104E9000A87800F02006D8F874B00EB1002001E028
:104EA000D8F87000009009F0040098B32888062113
:104EB00001EAE01040F0F00795F800A039464046BE
:104EC000009AFFF7BBFF0446012C04D01EB96FF017
:104ED0000700BDE8F88F51464046FFF7CEFE044676
:104EE000012C03D016B96FF00700F2E709F00100BA
:104EF00028B35846FFF792FE47F00107394640466F
:104F0000009AFFF79BFF0446012C18D0BEB96FF042
:104F10000700DEE7FFE728784006070E09F00100EA
:104F200008B147F0010739464046009AFFF786FF6F
:104F30000446012C03D016B96FF00700C9E7002022
:104F4000C7E72DE9F05F074688469146D7F874B069
:104F50005846FFF755FE002637E006EB460008EB03
:104F60008004A07800F0200AA07800F0100068B952
:104F700016B15846FFF752FE21463846FFF782FF2A
:104F800005461DB1BAF1000F00D122E0A07800F073
:104F9000010060B121463846FFF725FF0546A0888D
:104FA000A84211DD002D01DB6FF0070511E021465D
:104FB0003846FFF7D7FE0546A088A84204DD002D3D
:104FC00001DB4FF0FF3504E0761C4E45C5D3354676
:104FD00000BF5846FFF73AFE2846BDE8F09F70B57F
:104FE00004460D460A48206429462046FFF77AFC0D
:104FF00070BD10B50446A269521C5008616988470B
:1050000010BD10B50446D4E90510884710BD000056
:10501000ACCC0108012903D14A02364B1A6104E0E5
:1050200019B94FF40072334B5A617047012903D10B
:105030000A02314B1A6005E021B94FF480722E4B01
:105040001B1D1A60704701462A488068C0F3402043
:1050500070470146284808380068C0F300207047B0
:105060004FF0E02252694FF47A73B2FBF3F25043EF
:105070004FF0E022916900BF4FF0E02292698A1A56
:105080008242F9D3704710B504464FF47A7104FB9D
:1050900001F0FFF7E5FF10BD08B50121142000F075
:1050A00080FE4FF48070ADF8000003208DF8020000
:1050B00014208DF8030069460F48103805F0AAFC4B
:1050C0004FF40070ADF8000069460A4805F0A2FCF4
:1050D00008BD10B5FFF7E0FF78220021074809F06E
:1050E000E2FB07480549486706A10448FFF777FF38
:1050F000002010BD0010014010080140701D00206C
:10510000B8CC0108693263310000000008B50B20FB
:105110008DF8000000208DF801008DF802000120BC
:105120008DF80300684607F0D8FC08BD2DE9F84F5C
:1051300006460121042000F034FE0120ADF80000F5
:1051400018208DF8030003208DF802006946F94805
:1051500005F060FCF84802F025F80121082000F075
:1051600049FEF648006812F02FFF8046314612F0E3
:10517000E4FE0746F249384612F0E4FF0DD2F0494A
:10518000384612F0DAFE81464FF07E5112F0CFFE23
:10519000804612F02BFF84B200E00024601C12F065
:1051A0000AFF82465146384612F0C7FE81464FF04C
:1051B0007E5112F0BCFE804612F018FF85B2DE4828
:1051C00028300480001D05806810DB4934310880D8
:1051D000D948008820F01000D7490880D6481830F8
:1051E000008820F07000D4491831088008460088F3
:1051F00040F060000880D0482030008840F0010076
:10520000CD49203108806810CB4934310880BDE891
:10521000F88F30B58BB005460C460121084600F0EA
:1052200095FD00224FF40871C64801F09AF9C6486E
:1052300006F096FFC3484C30009001950020029084
:105240000394049080200590400006908000079011
:10525000202008900002099000200A906946BA4870
:1052600007F055F801220621B74807F08DF9012112
:10527000B44801F053F90121B34807F017F90BB016
:1052800030BD00B587B04FF4804000F059FC0121DB
:105290004FF4017000F085FD0820ADF818000320E0
:1052A0008DF81A0000208DF81B0006A9A14805F012
:1052B000B1FB4FF48040ADF8180010208DF81B00B2
:1052C00006A99C4805F0A6FB9E4801F001F80121C3
:1052D000480200F066FD0020019001208DF80800D2
:1052E0008DF809004FF46020039000200490012005
:1052F0008DF8140001A9934801F01FF80023012242
:105300000321904801F081FA01218E4801F04BFB06
:1053100001218C4801F0DCF88A4801F056F900BF01
:10532000884801F068F90028FAD1864801F07EF932
:1053300000BF844801F090F90028FAD14FF4FA61D7
:105340008248FFF766FFFFF7E1FE8148FFF7EEFEB8
:1053500007B000BD10B509F03DFA7E480088401C3A
:105360007C490880084600887B4908807B4808F013
:1053700030FE784800880E2806D100207549088044
:105380000021704801F0A4F8042007F090FA18B149
:105390000D2007F052FB0AE0022007F088FA18B14E
:1053A0000B2007F04AFB02E0082007F046FB09F05B
:1053B00028FA10BD6048008840F001005E4908806E
:1053C00070475D48008820F001005B490880704705
:1053D0002DE9F84F05460F462846FFF7A7FE60481F
:1053E00001F0E0FE0121102000F004FD39465D4887
:1053F00012F0A3FD05465148006812F0E5FD814614
:10540000294612F09AFD80464D49404612F09AFE18
:105410000DD24B49404612F090FD82464FF07E512E
:1054200012F085FD814612F0E1FD84B200E0002417
:10543000601C12F0C0FD83465946404612F07DFDC7
:1054400082464FF07E5112F072FD814612F0CEFD81
:1054500086B2434804858685808940F00100404932
:1054600088810846008840F00800088036208DF8C2
:10547000000000208DF801008DF8020001208DF859
:105480000300684607F029FB374890F83501404291
:10549000C2B200210120FFF7F5F9334890F8350139
:1054A0004042C2B200210220FFF7ECF9BDE8F88FBC
:1054B0002B48008840F00100294908801E48183018
:1054C000008820F070001C491831088008460088C8
:1054D00040F0600008801848008840F0010016493C
:1054E0000880704710B509F075F91348008820F05E
:1054F00001001149088010481830008820F0700021
:105500000D49183108800846008840F05000088096
:1055100000200949243108801148008A20F0010048
:105520000F4908820121074800F0D2FF09F069F90C
:1055300010BD000000080140000C00405C0100208C
:105540000060EA460024014008000240E81D0020F7
:10555000A6C2224856010020580100207C040020E9
:1055600000100040002474493403002014480088CF
:1055700020F07000124908800846008840F0400082
:1055800008800846008840F060000880704708B531
:105590000121082000F005FC4FF48040ADF8000028
:1055A00010208DF8030003208DF80200694605489D
:1055B00005F030FA4FF4804002491431086008BD0C
:1055C000180C0040000C01400CB500200190009028
:1055D0006C48006840F480306A49086000BF694840
:1055E000006800F4003000900198401C0190009881
:1055F00018B90198B0F5A06FF1D16248006800F4C5
:10560000003010B10120009001E0002000900098CF
:10561000012843D15C48006840F010005A490860F6
:105620000846006820F0030008600846006840F063
:105630000200086053484068524948600846406884
:1056400048600846406840F480604860084640680A
:1056500020F47C1048600846406840F4A810486078
:105660000846006840F08070086000BF4548006848
:1056700000F000700028F9D04248406820F0030094
:10568000404948600846406840F00200486000BF5A
:105690003C48406800F00C000828F9D10CBD10B55A
:1056A000FFF792FF10BD10B53648006840F00100CA
:1056B0003449086008464068344908403149486028
:1056C00008460068324908402E49086008460068CC
:1056D00020F4802008600846406820F4FE004860FE
:1056E0004FF41F008860FFF7DAFF4FF00060294990
:1056F000086010BD10B5002100200022214B5B681E
:1057000003F00C0121B1042906D0082928D107E0B3
:10571000214B224C236027E01F4B204C236023E0C9
:10572000184B5B6803F47010164B5B6803F480320F
:10573000022303EB904022B9194B4343174C2360DB
:105740000DE0104B5B6803F4003323B1144B43436B
:10575000124C236003E0104B4343104C236003E0E2
:105760000D4B0E4C236000BF00BF064B5B68C3F3BC
:1057700003130C4CE15C094B1B68CB40074C2360C6
:1057800010BD000000100240002002400000FFF8A1
:10579000FFFFF6FE08ED00E000127A005C01002039
:1057A00000093D0060010020FE48006840F0010053
:1057B000FC49086008464068FB490840F9494860D0
:1057C00008460068F9490840F6490860084600683C
:1057D00020F4802008600846406820F4FE004860FD
:1057E0004FF41F008860704710B504462CB1B4F523
:1057F000803F02D0B4F5802F00D104E040F21111B7
:10580000EBA0FAF7C9FCE748006820F48030E549CE
:1058100008600846006820F480200860B4F5803FE6
:1058200003D0B4F5802F0ED106E0DE48006840F4C6
:105830008030DC49086007E0DA48006840F4A020C6
:10584000D849086000E000BF00BF10BD2DE9F0415D
:105850000446002500260027212C13D0312C11D01E
:10586000392C0FD0412C0DD0612C0BD07A2C09D0C3
:105870007B2C07D07C2C05D07D2C03D07E2C01D036
:105880007F2C00D104E040F23451C9A0FAF784FC27
:105890006511012D02D1C348066806E0022D02D130
:1058A000C048066A01E0BF48466A04F01F050120AF
:1058B000A840304008B1012700E000273846BDE885
:1058C000F08138B5002000900024002500BF312071
:1058D000FFF7BCFF05460098401C00900098B0F50B
:1058E000A06F01D0002DF2D03120FFF7AFFF08B13B
:1058F000012400E00024204638BD70B50446002590
:105900001F2C00DC04E04FF4A971A9A0FAF744FCB5
:10591000A448056825F0F80545EAC405056070BD92
:1059200010B504460CB1012C00D104E040F2651121
:105930009FA0FAF731FCAD48046010BD70B5054674
:105940000C4600262DB1B5F5803F02D0B5F5403F9D
:1059500000D104E040F27F1195A0FAF71DFC4CB392
:10596000B4F5802F26D0B4F5002F23D0B4F5402F06
:1059700020D0B4F5801F1DD0B4F5A01F1AD0B4F507
:10598000C01F17D0B4F5E01F14D0B4F5001F11D01C
:10599000B4F5101F0ED0B4F5201F0BD0B4F5301F96
:1059A00008D0B4F5401F05D0B4F5501F02D0B4F5AF
:1059B000601F00D104E04FF4C0717DA0FAF7ECFB4A
:1059C0007848466826F47C1645EA04000643754884
:1059D000466070BD10B504460CB1012C00D104E046
:1059E0004FF4CA7172A0FAF7D7FB8048046610BD65
:1059F00070B5044600251CB1012C01D0022C00D149
:105A000004E04FF40E716AA0FAF7C6FB65484568DA
:105A100025F003052543456070BD6248406800F0ED
:105A20000C00704770B5044600257CB1802C0DD069
:105A3000902C0BD0A02C09D0B02C07D0C02C05D0B6
:105A4000D02C03D0E02C01D0F02C00D104E04FF496
:105A5000197157A0FAF7A0FB5248456825F0F005E8
:105A60002543456070BD70B5044600255CB1B4F5B2
:105A7000806F08D0B4F5A06F05D0B4F5C06F02D028
:105A8000B4F5E06F00D104E040F27E2148A0FAF7BF
:105A900083FB4448456825F4E0652543456070BDB7
:105AA00070B5044600255CB1B4F5806F08D0B4F53C
:105AB000A06F05D0B4F5C06F02D0B4F5E06F00D18F
:105AC00004E04FF426713AA0FAF766FB35484568C2
:105AD00025F4605545EAC405456070BD70B50446BF
