:020000040800F2
:10000000E851002055010008092D00081F020008D2
:10001000052D0008A9140008A147000800000000F1
:10002000000000000000000000000000853D000806
:10003000A51C000800000000A7010008713E000890
:100040006F0100086F0100086F0100086F010008D0
:100050006F0100086F010008231E0008A11E0008A0
:10006000B31E0008C51E0008D71E00086F01000857
:100070006F010008F91400086F010008111500084D
:10008000291500086F0100086F0100089D4700084E
:100090009F4700086F0100086F010008E91E000873
:1000A0006F0100086F0100086F0100086F01000870
:1000B0006F0100086F0100086F0100086F01000860
:1000C0006F0100086F0100086F0100086F01000850
:1000D0006F010008E13E0008F93E0008113F0008EA
:1000E000351E00086F0100086F0100086F0100084D
:1000F0006F0100086F0100086F0100086F01000820
:100100006F0100086F0100086F0100086F0100080F
:100110006F0100086F0100086F0100086F010008FF
:100120006F0100086F0100086F0100086F010008EF
:10013000DFF80CD000F066FF00480047BDB60008AD
:10014000E8510020002804D090FAA0F0B0FA80F026
:10015000401C70470648804706480047FEE7FEE718
:10016000FEE7FEE7FEE7FEE7FEE7FEE7FEE7FEE767
:10017000813E000831010008EFF3108072B670472D
:1001800080F310887047324A1368012B04D04FF077
:10019000010313602F4A10602F4A11602F484FF05F
:1001A000805101607047EFF3108272B628480168F1
:1001B00091B14FF0000101602648016829B1EFF3C9
:1001C000098121E9F00F0068016023490968096885
:1001D000B1E8F00F81F3098882F310884EF0040E25
:1001E00070471D4908601B494FF00000086018491E
:1001F0004FF0010008601A484FF47F01D0F800204A
:1002000041EA0201016015484FF080510160154834
:100210000068006880F3088861B662B670471EF017
:10022000040F14BFEFF30880EFF3098020E9F00F0B
:1002300040F804ED14BF80F3088880F3098800B506
:100240000EF04CF95DF804EB4EF0040E7047000020
:10025000B8020020B0020020B402002004ED00E04B
:1002600020ED00E008ED00E040EA01039B0703D029
:1002700009E008C9121F08C0042AFAD203E011F8E5
:10028000013B00F8013B521EF9D27047D2B201E0A7
:1002900000F8012B491EFBD270470022F6E710B58B
:1002A00013460A4604461946FFF7F0FF204610BDE4
:1002B00010B5044604E00B7800F8013B03B1491C7B
:1002C000521EF8D2204610BDCAB2401E10F8011FBF
:1002D0008A4202D00029F9D100207047421C10F850
:1002E000011B0029FBD1801A704710B5002200E0E5
:1002F000521C835C8C5CA34201D1002BF8D1D8B294
:10030000E1B2401A10BD30B504460020034600E0BB
:100310005B1C934203D2E05CCD5C401BF8D030BD47
:1003200010B5044600E0401C0378002BFBD100E030
:10033000401C521E04D311F8013B0370002BF7D16F
:1003400000210170204610BD034611F8012B00F872
:10035000012B002AF9D11846704730B50546002018
:10036000034600E05B1C934205D2EC5CC85C201A9B
:1003700001D1002CF6D130BD0FB400B58DB010A95D
:1003800009900B9000914FF0FF300A9000200C90E4
:1003900005480690054807906A4609A80F9900F09D
:1003A0008BFB0DB05DF814FBD50A0008F30A0008BA
:1003B0002DE9FF5F1D464FF0FF3BD5E90146914611
:1003C0005F464FF00008A9697F1C01988847296A99
:1003D000824688470028F6D1BAF1FF3F0CD024F4BA
:1003E000C064002E19DD600614D5BAF12B0F09D0B8
:1003F000BAF12D0F0ED103E0584604B0BDE8F09FCE
:1004000044F48064A9697F1C01988847761E82465F
:10041000002E02DDBAF1300F03D0B9F1000F26D063
:1004200032E0A969761E44F400747F1C0198884765
:100430008246002E05DDBAF1780F06D0BAF1580FCA
:1004400003D0B9F1000F10D01EE0B9F1000F02D0B7
:10045000B9F1100F18D1A969761E24F400747F1C1D
:10046000019888478246102002E0082000E00A2018
:10047000814609E008FB0908A969761E44F4007466
:100480007F1C019888478246002E05DD494650466C
:1004900000F0FDFA0028EDDAE96901988847A00527
:1004A00002D46FF00100A8E7E00725D1600613D55C
:1004B000600502D5C8F1000000E0404629680A1D29
:1004C0002A600968220501D5087015E0220701D5C8
:1004D000088011E008600FE02868011D29600068AD
:1004E000210502D580F8008006E0210702D5A0F89A
:1004F000008001E0C0F8008038467EE72DE9FF4F1C
:10050000087883B09946FF2805D0491C2D2804D0CF
:100510000024002008E000200BE00124F9E700EBB4
:10052000800003EB4000491C0B78FF2BF7D104B18E
:10053000404200230293147819461D462D2C01D009
:100540002B2C04D1521C2D2C13D000240294AA462B
:100550001478FF2C0FD00A25A3FB057801FB058139
:100560004FF0000C03FB0C11521CE3194AEB010184
:10057000EEE70124EAE7814453EA010002D019F5CD
:10058000C87F06DA03980021C0E9001107B0BDE872
:10059000F08F0025AE4E2F46DFF8B882184600F0E7
:1005A0000DFDCDE90001B9F1000002DAC9F1000446
:1005B00000E004460023A74A1AEB030B42EB045A5F
:1005C00012E0E00707D02A4633463846414600F09D
:1005D00014FC074688462A4633461046194600F062
:1005E0000CFC05460E466410002CEAD1DDE9000142
:1005F000B9F1000F5A46534606DA00F070FC3A464D
:10060000434600F06CFC05E000F0F7FB3A46434639
:1006100000F0F3FB029A0AB181F00041039AC2E9AB
:100620000001B3E72DE9FF4F1F468DB0D7E9014622
:100630004FF0FF382E2045464FF000090B90B96966
:100640006D1C0E988847396A824688470028F6D183
:10065000BAF1FF3F0AD024F4D064002E11DDBAF1C4
:100660002B0F08D0BAF12D0F0BD102E0404611B08C
:100670008DE744F48064B9696D1C0E988847824602
:10068000761E6946600501D52D2000E02B208DF8EF
:10069000000001F1010B0DF1200809E0B9696D1CA2
:1006A0000E98884782460F9844F40074761E0560C1
:1006B000002E02DDBAF1300FF0D00B998A453ED101
:1006C00044F0800406E00F99681CA9F1010944F484
:1006D00000740860B9696D1C761E0E9888478246C2
:1006E0003028F0D02BE00B998A4505D1200603D4A1
:1006F00044F08004761E18E0504604F04BF908B32D
:100700000DF11301761E44F400748B4508D2AAF152
:1007100030000BF8010B200607D5A9F1010003E01A
:10072000200602D409F101008146A00502D50F99E7
:10073000681C0860B9696D1C0E9888478246002EB7
:10074000D1DC53E0002E51DDBAF1650F02D0BAF1D1
:10075000450F4BD1A00549D5B9696D1C24F44074EF
:10076000761E0E9888478246002E0CDD2B2804D07A
:10077000BAF12D0F07D144F48074B9696D1C0E983D
:1007800088478246761EE00501D52D2100E02B2109
:1007900008F8011BCDF82C8021E00DF12901761E0F
:1007A00044F4007488450CD2AAF1300010F0FF0028
:1007B00088F8000002D10B99884509D908F1010891
:1007C00006E0E00501D5244801E042F20F708146C1
:1007D000B9696D1C0E98884782460F980560002EF7
:1007E00004DD504604F0D6F80028D6D1F9690E98F9
:1007F0008847FF208BF8000088F800000020069052
:1008000007904B466A4608A906A8FFF777FEA005A1
:1008100002D46FF001002AE714F0240F0AD0E00799
:1008200014D1DDE906123868031D3B600068C0E999
:1008300000120BE0DDE9060100F0B6F80146E00722
:1008400004D13868021D3A600068016028460EE74E
:10085000000014400000F03FF1D8FFFF70B50646DD
:1008600003F0B8FF046805460A220021304600F074
:1008700051F92C6070BD0EB5C10F80EAE0700844DC
:10088000CA07002140F233438DE80E000A460B46AA
:1008900000F0BEF903B000BD0EB540F23341029145
:1008A0000021CDE900110A460B4600F0B1F903B072
:1008B00000BD70B5C1F30A5201F000450024C1F338
:1008C000130140F2FF3341F480119A4201DA002013
:1008D00070BD40F233439A42A2F2334203DC5242EB
:1008E00000F0C5F800E090402C43F1D0404270BDCC
:1008F000C1F30A5210B5C1F3130140F2FF3341F4C2
:1009000080119A4201DA002010BD40F233439A422E
:10091000A2F2334203DC524200F0A9F810BD90402D
:1009200010BD00F0004230F000400AD0C10D01F5CA
:100930006071C0F3160042EA0151C208400711433A
:10094000704700200146704730B5041E71F1000465
:1009500004DB4FF00044404264EB0101141E73F1CC
:10096000000405DB1C464FF00043524263EB0403D6
:100970008B4208BF824230BD30B5041E71F10004C5
:1009800004DB4FF00044404264EB0101141E73F19C
:10099000000405DB1C464FF00043524263EB0403A6
:1009A000994208BF904230BD01F0004330B421F0BD
:1009B000004150EA010206D00A0DA2F56072C1F3AF
:1009C0001301002A02DC30BC00207047440F44EAC7
:1009D000C104C100E01830BC00EBC25000F0D2B836
:1009E00030B50B46014600202022012409E021FAFF
:1009F00002F59D4205D303FA02F5491B04FA02F5FC
:100A00002844151EA2F10102F1DC30BD2DE9F05F92
:100A10000546002092469B4688460646814640246D
:100A20001BE0284641464746224600F020F8534640
:100A30005A46C01A914110D311461846224600F07A
:100A4000F3FA2D1A67EB01084F46224601200021D8
:100A500000F0EAFA17EB00094E41201EA4F1010450
:100A6000DFDC484631462A464346BDE8F09F202A4F
:100A700004DB203A21FA02F00021704721FA02F348
:100A8000D040C2F1200291400843194670473A28ED
:100A900000D2303820F02002412A01D3A2F13700E1
:100AA000884201D34FF0FF307047000002681144C4
:100AB0001378016018467047D160044951610449B8
:100AC000116200211161114600F0DEBAAD0A000882
:100AD00075100008426842B1016811F8013B23B16A
:100AE000521EC0E90012184670470121C160881EDD
:100AF000704742685AB1C368016843B983688B4242
:100B000005D0491E521CC0E90012002070474FF06A
:100B1000FF3070472DE9F04791460F468046044666
:100B2000002614F8015B2DB100F0A0FA0068405DCA
:100B3000C007F6D12B2D02D02D2D18D0641E4A46A9
:100B40003946204600F036FC27B13968A14201D170
:100B5000C7F8008071054FF002040BD54042002811
:100B600003DD03F037FE0460A007BDE8F08746F41C
:100B70008066E4E70028F8DA03F02CFE04606FF0EA
:100B80000040F2E70029A8BF7047401C490008BF99
:100B900020F00100704710B4B0FA80FC00FA0CF0AD
:100BA00050EA010404BF10BC704749B1CCF12004E5
:100BB00021FA04F411FA0CF118BF01212143084372
:100BC000A3EB0C01CB1D4FEA00614FEA102042BF9E
:100BD000002010BC704700EBC35010440029A4BF94
:100BE00010BC7047401C490008BF20F0010010BC39
:100BF000704710B5141E73F1000408DA401C41F16F
:100C0000000192185B411A4301D120F0010010BD90
:100C10002DE9F04D92469B4611B1B1FA81F202E006
:100C2000B0FA80F22032904600F0FEF904460F46FA
:100C300040EA0A0041EA0B0153465A46084313D0E2
:100C4000114653EA010019D0C8F140025046FFF79F
:100C50000EFF05460E4650465946424600F0E4F95E
:100C6000084305D0012004E020463946BDE8F08D58
:100C70000020054346EAE0762C4337430A98630593
:100C8000E40AA0EB08000022FD0A44EA47540A30B7
:100C900002D500200146E9E7010510196941DDE9A7
:100CA000084500196941BDE8F04DA2E72DE9FE4F66
:100CB000804681EA0300C00F0C46009021F00041FD
:100CC00023F00045B8EB0200A94105D24046214679
:100CD00090461C460B46024623F00040104347D086
:100CE000270DC7F30A00C3F30A510290401A01907E
:100CF00040286BDAC3F3130040F4801B009892463F
:100D000020B10023D2EB030A63EB0B0B0198594689
:100D1000C0F14002504600F087F906460D465046A5
:100D20005946019A00F08FF910EB08006141002448
:100D300087EA115284EAE7731A4340D0009A62B3FB
:100D4000019A012A4FEA075215DC001B61EB0201F0
:100D50004FF0004202EA0752CDE90042001C41F583
:100D6000801132462B46FFF753FF03B0BDE8F08FEA
:100D700040462146F9E7001B61EB0201001C41F5EA
:100D8000801300185B412018A2F5001747EB030100
:100D900040EAD570B6196D4111E06D084FEA36068C
:100DA00045EAC0754FEA0752001B61EB0201001CC7
:100DB00041F5801149084FEA30000019514132468F
:100DC0002B4603B0BDE8F04FFFF713BF0098012298
:100DD00040000023D0EB020263EBE0730098214651
:100DE0004FEAE074B8EB000061EB0401E9E783F03F
:100DF00000435BE781F0004158E72DE9FE4F81EAAF
:100E0000030404F0004421F0004100944FF0000B73
:100E100023F0004350EA01045ED052EA03045BD0A1
:100E2000C3F30A54C1F30A552C44A4F2F3340194D9
:100E3000A0FB0254C1F3130141F48011C3F3130367
:100E400043F4801301FB024400FB034E840A970A1B
:100E500044EA815447EA8357A4FB076802958D0A48
:100E600005FB07854FEA932C04FB0C542705029DD4
:100E70004FEA065847EA1637B5EB08056EEB070C44
:100E8000870E920E47EA811742EA8312A7FB0201FE
:100E9000B6EB0B0164EB00042B0D43EA0C335E1838
:100EA00044EB1C50DA465146E7FB0201C5F313043C
:100EB0004FEA0B3343EA14534FEA0432019C43EAEE
:100EC0000603A4F10C040294009CCDE900B4FFF7E2
:100ED0009FFE03B0BDE8F08F00200146F9E72DE941
:100EE000F04D81EA030404F0004B21F00045144664
:100EF0004FF0000A23F0004150EA050220D054EAE6
:100F000001021DD0C5F30A570246C5F31303C1F30E
:100F10001300C1F30A5640F4801543F48013A7EB85
:100F20000608101BD64608F2FD3873EB050002D305
:100F300008F1010801E092185B41B8F1000F03DAF3
:100F400000200146BDE8F08D00204FF480110646D8
:100F500084460EE0171B73EB050705D3121B63EBEA
:100F6000050306434CEA010C49084FEA3000921889
:100F70005B4150EA0107EDD152EA030012D082EA48
:100F8000040083EA0501084305D0101BAB4106D2DB
:100F90000122002306E000224FF0004302E06FF040
:100FA000010253101AEB06004CEB085110EB0A003B
:100FB00041EB0B01BDE8F04DFFF71BBE0EB540F253
:100FC000334202920022CDE900221346FFF720FEB1
:100FD00003B000BDC1F30A52C1F3130140F2FF3365
:100FE00041F480119A4202DA00200146704740F233
:100FF00033439A42A2F2334202DC5242FFF737BD3A
:1010000000F012B8064C074D06E0E06840F001031E
:1010100094E8070098471034AC42F6D3FFF78CF8F9
:101020008C8F0108AC8F0108202A04DB203A00FADB
:1010300002F1002070479140C2F1200320FA03F32F
:10104000194390407047202A06DBCB17203A41FA1B
:1010500002F043EAE07306E041FA02F3D040C2F145
:10106000200291400843194670470000004870472D
:101070003081010810B50446FFF7F8FF0068005DF5
:1010800000F0010010BD00002DE9F34F8BB04FF0D0
:10109000000801F10C000C464FF0010B46460DF123
:1010A000080A01906269012101989047051E2DD020
:1010B000252D2CD0216A8847C0B162690121019891
:1010C0009047216A88470028F7D1411E626901983C
:1010D000904700E0761CA1690B988847216A8847F1
:1010E0000028F7D1E1690B988847DBE7A1690B98E5
:1010F00088470746A84201D1761CD3E7E1690B98DF
:1011000088477F1C02D1B8F1000F6FD046E100275D
:1011100062693D463946019890472A2804D16269A0
:101120000121019890470125DFF88492626901212D
:1011300001989047A0F130010A290AD24F45E5DC19
:1011400007EB870100EB4107303FDFD445F0100586
:10115000ECE7E90601D46FF000476C280AD04C2870
:1011600014D0682815D06A280DD074281CD07A288D
:101170001AD01DE062690121019890476C2802D0C5
:1011800045F0040514E045F002050DE045F02005AA
:101190000AE06269012101989047682802D045F071
:1011A000080505E045F40065626901210198904752
:1011B000C4E9015765283DD019DC58287AD00CDCE9
:1011C000452837D004DC252826D0412831D131E00C
:1011D00046282FD047282CD12CE05B2877D06128D7
:1011E00028D063287CD0642823D15AE0D0E06F282F
:1011F00048D008DC66281DD067281BD0692821D07C
:101200006E2816D127E0702845D0732868D075283D
:1012100047D078280DD14DE0A1690B988847054645
:1012200025283FF469AFE1690B9888476D1C3FF4AE
:101230006AAFB3E023466A466FF001000B99FFF7EF
:10124000F1F99EE045F040006060A80723464FF0AA
:10125000000236D43EE0E8077FF447AF2068011D66
:1012600021600068290501D506701BE7290701D513
:10127000068017E7A90703D5F117C0E9006111E758
:1012800006600FE745F040006060A80723464FF076
:10129000080216D41EE040F60E0125EA0100606047
:1012A00016E045F040006060A80723464FF00A02B0
:1012B00007D40FE045F040006060A80708D523463A
:1012C00010226FF001000B99AFF3008059E007E0A6
:1012D000234610226FF001000B99FFF769F850E0E8
:1012E0004FF000094F464B46632802D05B2806D0DA
:1012F00040E0E80601D40120A06001273AE06269DD
:101300000121019890475E2805D14FF001096269DB
:10131000494601989047216939B900210A46534648
:1013200043F82120491C0829FADBB0B3216969B9C7
:10133000C11700EBD16253110AEB830122F01F02A7
:10134000821A01200B68904003430B6062690121FF
:10135000019890475D28E8D1B9F1000F09D000202D
:10136000514651F82020D24341F82020401C082843
:10137000F7DB02AB224600976FF001000B99AFF349
:10138000008000280CDA401C08D1BBF1000F05D00A
:101390004FF0FF300DB0BDE8F08FFFE74046F9E7B2
:1013A000E90701D108F1010806444FF0000B79E686
:1013B000CCCCCC0C2DE9F05F824600780027154696
:1013C0008B460AF10104B946302801D09DB113E0E3
:1013D00014F8010B0127782803D0582801D045B113
:1013E0000AE00DB1102D07D10027102514F8010BCC
:1013F00002E0082500E00A250026B0460EE005FBC5
:10140000080005FB06F1012701EB10461FFA80F8E2
:10141000B6F5803F00D3B94614F8010B2946FFF713
:1014200036FB0028EBDABBF1000F05D00FB1641ECC
:1014300000E05446CBF80040B9F1000F06D003F0AD
:10144000C9F902210160C81EBDE8F09F48EA0640C4
:10145000FAE770B58C1810F8015B15F0070301D19D
:1014600010F8013B2A1106D110F8012B03E010F807
:10147000016B01F8016B5B1EF9D12B0705D400232A
:10148000521E0DD401F8013BFAE710F8013BCB1ACC
:10149000921C03E013F8015B01F8015B521EF9D5C1
:1014A000A142D8D3002070BD00BFFEE710B50023D5
:1014B0000CA21946184601F049FB002309A210218D
:1014C000184601F043FB002306A22021184601F034
:1014D0003DFB002303A23021184601F037FB09F041
:1014E000A9FE10BD20202020202020202020202008
:1014F000202020200000000010B50DF0B1FB0348B3
:1015000004F0E4FF0DF0CEFB10BD0000A416002097
:1015100010B50DF0A5FB034804F0D8FF0DF0C2FB99
:1015200010BD0000FC15002010B50DF099FB03481C
:1015300004F0CCFF0DF0B6FB10BD000050160020EB
:1015400010B5044604F0704010B10948204008B9B5
:1015500004B104E040F20E2106A004F0B5FD04F051
:10156000805010B11248046001E01248446010BD80
:101570000000F0EF4C69627261726965735C5354EC
:101580004D3332463130785F537464506572697000
:10159000685F4472697665725C7372635C73746DC4
:1015A0003332663130785F646D612E630000000075
:1015B000040402400000024070B504460D46244871
:1015C00084422AD022481430844226D02048283031
:1015D000844222D01E483C3084421ED01C485030E9
:1015E00084421AD01A486430844216D018487830A1
:1015F000844212D0174884420FD0164814308442D7
:101600000BD014482830844207D012483C30844222
:1016100003D010485030844200D104E040F2291138
:101620000DA004F051FD0DB1012D00D104E04FF4E7
:10163000957109A004F048FD25B1206840F0010033
:10164000206004E020684FF6FE710840206070BD05
:1016500008000240080402404C69627261726965C8
:10166000735C53544D3332463130785F5374645059
:1016700065726970685F4472697665725C737263E3
:101680005C73746D3332663130785F646D612E63E4
:101690000000000070B58CB00546EC6BEE6CA86CD9
:1016A000C0F38F216161012240F22441206802F0E1
:1016B00081FE0121084602F0E9F90121022002F031
:1016C000E5F9A06800F03EF82068001D0190306840
:1016D000029000200390A86CC0F38F20049000209B
:1016E0000590802006900020079008902020099007
:1016F00000020A9000200B9001A9A06800F0EEF90A
:10170000E068FFF71DFF01220221A06800F070F9D8
:1017100001224021206802F0D1FC0121A068FFF7DE
:101720004BFF207C8DF8000000208DF801008DF823
:10173000020001208DF80300684601F0FFFA0CB0AA
:1017400070BD000010B504466A4884422AD069483A
:101750001430844226D067482830844222D065481D
:101760003C3084421ED06348503084421AD06148D5
:101770006430844216D05F487830844212D05E488C
:1017800084420FD05C48143084420BD05A48283031
:10179000844207D058483C30844203D056485030E9
:1017A000844200D103E06F2154A004F08DFC206836
:1017B0004FF6FE7108402060002020606060A0604D
:1017C000E0604C48844208D14A480838406840F0FC
:1017D0000F004849083948608AE04648143084427E
:1017E00008D144480838406840F0F00041490839C1
:1017F00048607DE03F482830844208D13D480838A1
:10180000406840F470603B490839486070E03948EE
:101810003C30844208D137480838406840F4704072
:1018200034490839486063E032485030844208D176
:1018300030480838406840F470202E490839486024
:1018400056E02C486430844208D12A480838406861
:1018500040F4700027490839486049E0254878304D
:10186000844208D123480838406840F0706021491C
:10187000083948603CE02048844206D1001F0068D7
:1018800040F00F00211F086032E01B4814308442F2
:1018900008D11948001F006840F0F0001649091FE0
:1018A000086025E014482830844208D11248001FFF
:1018B000006840F470601049091F086018E00E4885
:1018C0003C30844208D10C48001F006840F470404E
:1018D0000949091F08600BE007485030844207D1CE
:1018E0000548001F006840F470200349091F086084
:1018F00010BD000008000240080402404C696272FA
:1019000061726965735C53544D3332463130785F90
:101910005374645065726970685F44726976657269
:101920005C7372635C73746D3332663130785F64FC
:101930006D612E630000000010B504461B48844210
:101940002AD01A481430844226D0184828308442BD
:1019500022D016483C3084421ED014485030844275
:101960001AD012486430844216D01048783084422D
:1019700012D00F4884420FD00D48143084420BD04F
:101980000B482830844207D009483C30844203D0B9
:1019900007485030844200D104E04FF4BB7105A0E9
:1019A00004F092FB606880B210BD000008000240A5
:1019B000080402404C69627261726965735C535439
:1019C0004D3332463130785F5374645065726970BC
:1019D000685F4472697665725C7372635C73746D80
:1019E0003332663130785F646D612E630000000031
:1019F00070B504460D461646274884422AD026482C
:101A00001430844226D024482830844222D02248F0
:101A10003C3084421ED02048503084421AD01E48A8
:101A20006430844216D01C487830844212D01B485F
:101A300084420FD01948143084420BD01748283004
:101A4000844207D015483C30844203D013485030BC
:101A5000844200D104E040F2491111A004F034FBAB
:101A600025F00E0008B905B104E04FF4A5710CA0F3
:101A700004F02AFB0EB1012E00D104E040F24B111C
:101A800007A004F021FB1EB120682843206002E07B
:101A90002068A843206070BD08000240080402408E
:101AA0004C69627261726965735C53544D3332469E
:101AB0003130785F5374645065726970685F447246
:101AC000697665725C7372635C73746D3332663110
:101AD00030785F646D612E630000000070B50546CC
:101AE0000C4600265E4885422AD05D481430854267
:101AF00026D05B482830854222D059483C30854268
:101B00001ED05748503085421AD05548643085421F
:101B100016D053487830854212D0524885420FD0B3
:101B20005048143085420BD04E482830854207D0AB
:101B30004C483C30854203D04A485030854200D161
:101B400003E0CF2148A004F0BFFAA068102801D01C
:101B5000A06800B903E0D02143A004F0B5FAE06822
:101B600020B1E068B0F5803F00D203E0D1213EA073
:101B700004F0AAFA2069402801D0206900B903E0E6
:101B8000D22139A004F0A0FA6069802801D06069F0
:101B900000B903E0D32134A004F096FAA06938B16B
:101BA000A069B0F5807F03D0A069B0F5007F00D1B7
:101BB00003E0D4212CA004F087FAE06938B1E06991
:101BC000B0F5806F03D0E069B0F5006F00D103E09D
:101BD000D52125A004F078FA206A202801D0206AB7
:101BE00000B903E0D62120A004F06EFA606AB0F5D7
:101BF000405F09D0606AB0F5005F05D0606AB0F55B
:101C0000805F01D0606A00B903E0D72116A004F01C
:101C10005BFAA06AB0F5804F01D0A06A00B903E07A
:101C2000D82111A004F050FA2E6847F6F0708643D0
:101C3000216AA06808432169084361690843A169D2
:101C40000843E1690843616A0843A16A08430643FF
:101C50002E60E06868602068A8606068E86070BD19
:101C600008000240080402404C69627261726965B2
:101C7000735C53544D3332463130785F5374645043
:101C800065726970685F4472697665725C737263CD
:101C90005C73746D3332663130785F646D612E63CE
:101CA00000000000704770B5044620688047054674
:101CB00035B1012D1DD0022D5FD0032D6FD185E0F0
:101CC000A07AA8B120796179884202DD607920711B
:101CD0000EE0207918B12079401E207108E0002024
:101CE000E080A072E07A002802DDE07A01F0BEFE1A
:101CF00095E0A07A01282ED020796179884202DA15
:101D00006079207138E0207961794900884203DAEE
:101D10002079401C20712FE0A07A30B9207B002868
:101D200016DD207B01F0A2FE12E0A07A022806D187
:101D3000A07B00280CDDA07B01F098FE08E0A07AD3
:101D4000032805D1E07B002802DDE07B01F08EFE58
:101D50000120A07210E0208900280DDDE088218993
:101D6000884209DAE088401C80B2E08021898842FC
:101D700002D1607B01F07AFE51E0A07A98B9207917
:101D80006179884202DA607920711EE020796179F8
:101D90004900884204DA2079401C207115E03DE0BA
:101DA0000220A07211E0A07A01280ED12079617979
:101DB000884202DD6079207107E0207918B120792E
:101DC000401E207101E00220A07228E0A07A90B9A4
:101DD00020796179884202DA607920711DE02079EA
:101DE00061794900884203DA2079401C207114E0AF
:101DF0000320A07211E0A07A01280ED12079617928
:101E0000884202DD6079207107E0207918B12079DD
:101E1000401E207101E00320A07200E000BF00BF5F
:101E200070BD10B50CF01CFF00200AF09BFC0CF0FC
:101E300039FF10BD10B50CF013FF4FF4806000F0B7
:101E4000ADF810B10A200AF08DFC4FF4006000F0EC
:101E5000A5F810B10B200AF085FC4FF4805000F07B
:101E60009DF810B10C200AF07DFC4FF4005000F0FA
:101E700095F810B10D200AF075FC4FF4804000F089
:101E80008DF810B10E200AF06DFC4FF4004000F008
:101E900085F810B10F200AF065FC0CF003FF10BDAF
:101EA00010B50CF0DDFE01200AF05CFC0CF0FAFE2F
:101EB00010BD10B50CF0D4FE02200AF053FC0CF05B
:101EC000F1FE10BD10B50CF0CBFE03200AF04AFC69
:101ED0000CF0E8FE10BD10B50CF0C2FE04200AF0B4
:101EE00041FC0CF0DFFE10BD10B50CF0B9FE202057
:101EF00000F054F810B105200AF034FC402000F046
:101F00004DF810B106200AF02DFC802000F046F8B4
:101F100010B107200AF026FC4FF4807000F03EF864
:101F200010B108200AF01EFC4FF4007000F036F8E3
:101F300010B109200AF016FC0CF0B4FE10BD000030
:101F400010B50446200D000508B904B103E0FC21DA
:101F500002A004F0B9F81048046010BD4C69627228
:101F600061726965735C53544D3332463130785F2A
:101F70005374645065726970685F44726976657203
:101F80005C7372635C73746D3332663130785F6595
:101F90007874692E630000001404014070B5044693
:101FA00000250026012C31D0022C2FD0042C2DD05E
:101FB000082C2BD0102C29D0202C27D0402C25D019
:101FC000802C23D0B4F5807F20D0B4F5007F1DD0C5
:101FD000B4F5806F1AD0B4F5006F17D0B4F5805FF8
:101FE00014D0B4F5005F11D0B4F5804F0ED0B4F525
:101FF000004F0BD0B4F5803F08D0B4F5003F05D0BA
:10200000B4F5802F02D0B4F5002F00D103E0E52114
:1020100008A004F059F81648006800EA04061448BD
:1020200014300068204010B10EB1012500E00025F9
:10203000284670BD4C69627261726965735C535465
:102040004D3332463130785F537464506572697035
:10205000685F4472697665725C7372635C73746DF9
:102060003332663130785F657874692E6300000022
:102070000004014070B504460025207910B1207994
:10208000042800D103E06A2135A004F01DF860792E
:10209000082805D060790C2802D06079102800D17A
:1020A00003E06B212EA004F00FF820686FF31300FB
:1020B00010B9206800B103E06C2129A004F004F8F5
:1020C000A07910B1A079012800D103E06D2124A0EE
:1020D00003F0FAFF314DA07990B3284600682168DB
:1020E000884329460860081D006821688843291D27
:1020F000086020790544286821680843286027483B
:102100000830006821688843244908310860081DA8
:1021100000682168884321490C31086060791028E3
:102120000FD1081F0068216808431C490831086066
:10213000081D00682168084318490C3108600EE04A
:1021400007E0164D60790544286821680843286037
:1021500005E020790544286821688843286070BD1F
:102160004C69627261726965735C53544D333246D7
:102170003130785F5374645065726970685F44727F
:10218000697665725C7372635C73746D3332663149
:1021900030785F657874692E6300000000040140A8
:1021A00010B5FDF7E9FF0149086010BD00040020EB
:1021B00010B502480068FDF7E3FF10BD00040020E1
:1021C00008B502208DF8020004208DF803000002FB
:1021D000ADF8000069461C4800F03AF818208DF868
:1021E00003004FF40070ADF800006946164800F097
:1021F0002FF804208DF803000820ADF80000694690
:10220000114800F025F818208DF803000420ADF8DF
:10221000000069460C4800F01BF804208DF803000C
:102220004002ADF800006946084800F011F8182097
:102230008DF803004FF48060ADF800006946034854
:1022400000F006F808BD000000080140000C014045
:102250002DE9F05F05460C464FF00009CA460026FE
:102260000027B046B3465948854211D058488542A8
:102270000ED0584885420BD05748854208D0574861
:10228000854205D05648854202D05648854200D145
:1022900003E0B22154A003F017FFE078A0B1E0788A
:1022A000042811D0E07828280ED0E07848280BD0F8
:1022B000E078142808D0E078102805D0E0781C28B1
:1022C00002D0E078182800D103E0B32146A003F043
:1022D000FBFE002010B9208800B103E0B42142A029
:1022E00003F0F2FEE07800F00F09E07800F0100053
:1022F00080B1A078012805D0A078022802D0A0786B
:10230000032800D103E0BB2137A003F0DDFEA07855
:1023100040EA0909207838B3D5F8008000261FE08C
:10232000012000FA06F7208800EA070ABA4516D10C
:10233000B7000F2000FA07FB28EA0B0809FA07F09C
:1023400040EA0808E078282803D10120B0406861FD
:1023500005E0E078482802D10120B0402861761CD1
:10236000082EDDD3C5F800802088FF282BDDD5F8A6
:102370000480002623E006F10800012101FA00F79D
:10238000208800EA070ABA4518D1B7000F2000FAE2
:1023900007FB28EA0B0809FA07F040EA0808E0788A
:1023A000282803D106F1080081406961E0784828B7
:1023B00004D106F10800012181402961761C082E14
:1023C000D9D3C5F80480BDE8F09F000000080140A3
:1023D000000C0140001001400014014000180140B1
:1023E000001C0140002001404C6962726172696505
:1023F000735C53544D3332463130785F53746450BC
:1024000065726970685F4472697665725C73726345
:102410005C73746D3332663130785F6770696F2E2C
:10242000630000002DE9F04704460E460027B84639
:102430000025A946012C7DD0022C7BD0042C79D01C
:10244000082C77D0694884427FD068482030844285
:102450007BD06748844278D065488030844274D00D
:102460006448844271D0644884426ED06348844298
:102470006BD06348844268D06248844265D0B4F52A
:10248000805F62D0B4F5EA1F5FD0B4F5EB1F5CD07B
:10249000B4F5004F59D05C48844256D0401C844269
:1024A00053D0801C844250D0001D84424DD05648E9
:1024B0000F30844249D0B4F1201F46D04FEAF030AB
:1024C000844242D0514884423FD0514884423CD05B
:1024D0005048844239D05048844236D04F488442D4
:1024E00033D0B4F5011F30D04D4884422DD0401C6C
:1024F00084422AD0801C844227D0001D844224D0EC
:1025000047480F30844220D045481F3084421CD0B9
:1025100043483F30844218D041487F30844214D031
:102520003F48FF30844210D03E4884420DD03E48A0
:10253000844200E009E008D03C48844205D03C4891
:10254000844202D03B48844200D104E040F22A2178
:1025500039A003F0B9FD0EB1012E00D104E040F224
:102560002B2135A003F0B0FD04F00040B0F1004F86
:1025700002D14048C56901E03E484568C4F30349BB
:10258000A7B204F44010B0F5401F08D125F07065E3
:102590003848406820F070603649486013E004F421
:1025A0008010B0F5801F07D1032000FA09F825EA52
:1025B000080545F0706506E0600D000107FA00F0BF
:1025C000854345F0706526B1600D010107FA01F001
:1025D000054304F00040B0F1004F02D12548C56129
:1025E00001E024484560BDE8F087000010001400B9
:1025F0004000160000011800000218000003180037
:1026000000081A00000C1A00010020000001300030
:1026100000023000000430000011200000202000E3
:10262000010000800002008000040080000800809B
:1026300000100080002000804C6962726172696540
:10264000735C53544D3332463130785F5374645069
:1026500065726970685F4472697665725C737263F3
:102660005C73746D3332663130785F6770696F2EDA
:10267000630000000000014070B505460C460026CE
:102680002848854211D0284885420ED027488542E7
:102690000BD02748854208D02648854205D02648D9
:1026A000854202D02548854200D104E04FF48F7165
:1026B00023A003F009FD012C25D0022C23D0042CEB
:1026C00021D0082C1FD0102C1DD0202C1BD0402C2A
:1026D00019D0802C17D0B4F5807F14D0B4F5007FCA
:1026E00011D0B4F5806F0ED0B4F5006F0BD0B4F5F7
:1026F000805F08D0B4F5005F05D0B4F5804F02D0FC
:10270000B4F5004F00D104E040F21F110CA003F01B
:10271000DBFCA868204008B1012600E00026304616
:1027200070BD000000080140000C01400010014095
:102730000014014000180140001C0140002001402D
:102740004C69627261726965735C53544D333246F1
:102750003130785F5374645065726970685F447299
:10276000697665725C7372635C73746D3332663163
:1027700030785F6770696F2E6300000070B50446A3
:102780000D461348844211D0124884420ED012489C
:1027900084420BD01148844208D01148844205D0AD
:1027A0001048844202D01048844200D104E040F234
:1027B00079110EA003F088FC002008B905B104E0EF
:1027C0004FF4BD7109A003F07FFC656170BD00008E
:1027D00000080140000C01400010014000140140BD
:1027E00000180140001C0140002001404C69627249
:1027F00061726965735C53544D3332463130785F92
:102800005374645065726970685F4472697665726A
:102810005C7372635C73746D3332663130785F67FA
:1028200070696F2E6300000070B504460D461348B2
:10283000844211D0124884420ED0124884420BD0F8
:102840001148844208D01148844205D0104884427F
:1028500002D01048844200D104E040F269110EA079
:1028600003F032FC002008B905B104E04FF4B57163
:1028700009A003F029FC256170BD0000000801409B
:10288000000C0140001001400014014000180140FC
:10289000001C0140002001404C6962726172696550
:1028A000735C53544D3332463130785F5374645007
:1028B00065726970685F4472697665725C73726391
:1028C0005C73746D3332663130785F6770696F2E78
:1028D000630000000B48007D0A4A527D904201D1FE
:1028E000002070470748007D064A115C1046007DB5
:1028F000401CC0B21075142801DB0020107508467A
:10290000EFE70000681B002010B500F02DF800F084
:1029100001F810BD08B50121082001F043F910208D
:10292000ADF8000048208DF8030003208DF8020068
:1029300069460C48FFF78CFC2020ADF80000694682
:102940000848FFF785FC0820ADF8000069460548F7
:10295000FFF77EFC4020ADF8000069460148FFF714
:1029600077FC08BD000C01400020514908754875EE
:102970005048514908600220487164200881487914
:1029800000EBD07149104C4A117100201146887239
:10299000012008730220C872002048734748484944
:1029A00008600220487164200881487900EBD071EA
:1029B0004910434A1171002011468872042008739F
:1029C0000520C872002048733E483F490860022035
:1029D0004871C8200881487900EBD07149103A4A03
:1029E00011710020114688720A2008730B20C872EA
:1029F0000020487335483649086002204871642039
:102A00000881487900EBD0714910314A11710020DA
:102A100011468872072008730820C8720020487386
:102A20002C482D4908600220487100200881114679
:102A3000487900EBD0714910274A117100201146E6
:102A400088720873C8724873102088731120C87385
:102A500022482349086002204871002008811C494F
:102A6000487900EBD07149101D4A117100201146C0
:102A700088720873C8724873122088731320C87351
:102A800018481949086002204871002008814879D7
:102A900000EBD0714910144A117100201146887260
:102AA0000873C87248730D2088730020C87370477C
:102AB000681B0020D11E0108F81A00208D1D010896
:102AC000081B0020B91E0108181B0020A51D0108C5
:102AD000281B0020651E0108381B0020BD1D0108B1
:102AE000481B0020111E0108581B002010B50F487C
:102AF000007820B901200D490870FFF705FF0C4848
:102B0000FFF7D1F80B48FFF7CEF80B48FFF7CBF8EB
:102B10000A48FFF7C8F80A48FFF7C5F80948FFF761
:102B2000C2F80948FFF7BFF810BD0000600100209F
:102B3000F81A0020081B0020181B0020281B00206A
:102B4000381B0020481B0020581B00202DE9F04FA7
:102B500087B082468B4615461E46002006903D48AB
:102B600002904FEAEB000AEBC011029801EB00085B
:102B70004FEAEB00802101EBC01000EB0A01029844
:102B800001EB0009002753E02C78802C12DA324840
:102B900000EB041003900823009649464046039A30
:102BA00005F0C6F908F1080809F1080907F108005D
:102BB000C7B235E0681C054600780590681C0546DC
:102BC000007804900598802802DB0498802813DAA6
:102BD0002024214800EB0410039008230096494666
:102BE0004046039A05F0A4F908F1080809F108091C
:102BF00007F10800C7B229E003AB2046DDE9042154
:102C000007F010FF1023009649464046039A05F04E
:102C10008FF908F1100809F1100907F11000C7B287
:102C20006D1C0698401C80B20690802F00DB0DE0E2
:102C3000287808B1012000E000200699102901DA67
:102C4000012100E00021084000289DD100BF07B00D
:102C5000BDE8F08FF8160020F848010808B50121FA
:102C6000084600F09FFF01211448FFF7DBFB01211C
:102C70001348FFF7D7FB0121342000F093FF4FF4F6
:102C8000E050ADF8000010208DF8030003208DF80F
:102C9000020069460B48FFF7DBFA4FF40040ADF83D
:102CA000000069460848FFF7D3FA0420ADF8000099
:102CB00069460648FFF7CCFA08BD00000001300065
:102CC00000023000001001400008014000140140E3
:102CD00030B505460C4605F1B001C8B20FF082FFD1
:102CE00007484078012801D1201DC4B2102101EB12
:102CF00014100FF077FF04F00F000FF073FF30BDDA
:102D0000F004002000BFFEE7704710B500214FF02F
:102D1000006000F081F810BD38B5044620798DF8C8
:102D2000000000208DF8010001208DF802008DF8D0
:102D30000300684600F002F838BD00002DE9F041BC
:102D40000446002500270F26E07810B1E07801281E
:102D500000D103E0752121A003F0B6F960781028B6
:102D600000DA03E076211DA003F0AEF9A078102868
:102D700000DA03E0772119A003F0A6F9E07800B3A8
:102D80002248006800F4E060C0F5E060050AC5F183
:102D90000407EE40607800FA07F5A078304005435C
:102DA0002D011B4822788554207800F01F01012056
:102DB000884021784911890001F1E021C1F8000122
:102DC00009E0207800F01F01012088401149227895
:102DD000521141F82200BDE8F08100004C69627296
:102DE00061726965735C53544D3332463130785F9C
:102DF0005374645065726970685F44726976657275
:102E00005C7372635C6D6973632E63000CED00E0AC
:102E100000E400E080E100E070B504460D46B4F146
:102E2000005F02D0B4F1006F00D103E09F2109A040
:102E300003F04AF91348854200D203E0A02105A01F
:102E400003F042F9104905EA010020430F490860E8
:102E500070BD00004C69627261726965735C5354A5
:102E60004D3332463130785F537464506572697007
:102E7000685F4472697665725C7372635C6D6973D6
:102E8000632E6300FFFF0F0080FFFF1F08ED00E0CF
:102E900000BF0A48006810F8080C0849096811F8D2
:102EA000041C08440549096801F8080C0348006837
:102EB000001F0249086000BF704700002C0300207B
:102EC00000BF0A48006850F8080C0849096851F822
:102ED000041C08440549096841F8080C03480068C7
:102EE000001F0249086000BF704700002C0300204B
:102EF00000BF0A48006830F8080C0849096831F832
:102F0000041C084400B20549096821F8080C03486C
:102F10000068001F0149086000BF70472C030020B3
:102F200000BF0A48006810F8080C0849096811F841
:102F3000041C08400549096801F8080C03480068AA
:102F4000001F0249086000BF704700002C030020EA
:102F500000BF0A48006850F8080C0849096851F891
:102F6000041C08400549096841F8080C034800683A
:102F7000001F0249086000BF704700002C030020BA
:102F800000BF0A48006830F9080C0849096831F99F
:102F9000041C08400549096821F8080C034800682A
:102FA000001F0249086000BF704700002C0300208A
:102FB0000448006810F8040CC0430249096801F88D
:102FC000040C70472C0300200448006850F8040CDF
:102FD000C0430249096841F8040C70472C030020E3
:102FE0000448006830F9040CC0430249096821F81C
:102FF000040C70472C03002010B5A4B0DF48006813
:1030000000781390DD480068401CDC49086000200F
:103010001290DB480068001FD949086011E0D848C9
:10302000006802681398401E1299401A14A941F8CA
:103030002020D3480068001FD14908601298401C26
:103040001290DDE912018842E9D3CD48006800689A
:103050001190139811286ED2DFE800F0090E141DAC
:10306000293747596E849CB6D2F4F2F1F000002063
:1030700011998847109074E114980F90119988471E
:1030800010906EE115980F9014980E90119A0F9968
:103090009047109065E116980F9015980E9014982F
:1030A0000D90119BDDE90E129847109059E1179889
:1030B0000F9016980E9015980D9014980C90119CE6
:1030C0000DA90EC9A04710904BE1189800901798D1
:1030D0000F9016980E9015980D9014980C90119CC6
:1030E0000DA90EC9A04710903BE1DDE91801CDE91B
:1030F000000117980F9016980E9015980D9014983F
:103100000C90119C0DA90EC9A047109029E1DDE992
:1031100019211898CDE90121009017980F90169861
:103120000E9015980D9014980C90119C0DA90EC935
:10313000A047109015E111E1DDE9193218991B98AB
:10314000CDE901320091039017980F9016980E90D8
:1031500015980D9014980C90119C0DA90EC9A047BC
:103160001090FEE0DDE91923DDE91B10CDE9012314
:10317000CDE903101898009017980F9016980E90AC
:1031800015980D9014980C90119C0DA90EC9A0478C
:103190001090E6E0DDE91A23DDE91C10CDE90223F9
:1031A000CDE90410DDE91801CDE9000117980F9071
:1031B00016980E9015980D9014980C90119C0DA9CE
:1031C0000EC9A0471090CCE0DDE91C321B991E9877
:1031D000CDE9043203910690DDE919211898CDE973
:1031E0000121009017980F9016980E9015980D9049
:1031F00014980C90119C0DA90EC9A0471090B0E036
:10320000DDE91C23DDE91E10CDE90423CDE906101C
:10321000DDE9193218991B98CDE90132009103902C
:1032200017980F9016980E9015980D9014980C9072
:10323000119C0DA90EC9A047109092E068E043E0F0
:1032400020E0FFE7DDE91E321D992098CDE9063226
:1032500005910890DDE91923DDE91B01CDE9012382
:10326000CDE903011898009017980F9016980E90CA
:1032700015980D9014980C90119C0DA90EC9A0479B
:1032800010906EE0DDE91E13DDE92002CDE90613A2
:10329000CDE90802DDE91A23DDE91C01CDE90223AD
:1032A000CDE90401DDE91801CDE9000117980F907F
:1032B00016980E9015980D9014980C90119C0DA9CD
:1032C0000EC9A04710904CE0DDE92031229A1F98EA
:1032D000CDE908310A920790DDE91B23DDE91D01E4
:1032E000CDE90323CDE90501DDE919211898CDE9E0
:1032F0000121009017980F9016980E9015980D9038
:1033000014980C90119C0DA90EC9A047109028E0AC
:10331000DDE9213220992398CDE9093208910B90FB
:10332000DDE91D321C991F98CDE905320491079003
:10333000DDE91823DDE91A10CDE90023CDE90210FB
:1033400017980F9016980E9015980D9014980C9051
:10335000119C0DA90EC9A047109002E0002010900A
:1033600000BF00BF0649109809680860044800685B
:10337000001D0349086024B010BD00003003002088
:103380002C03002000BF0A48006810F8080C084908
:10339000096811F8041C90FBF1F00549096801F86F
:1033A000080C03480068001F0149086000BF70470F
:1033B0002C03002000BF0A48006850F8080C084998
:1033C000096851F8041C90FBF1F00549096841F8BF
:1033D000080C03480068001F0149086000BF7047DF
:1033E0002C03002000BF0B48006830F9080C094985
:1033F000096831F9041C90FBF1F000B20549096835
:1034000021F8080C03480068001F0249086000BF4B
:10341000704700002C030020084800680078084925
:103420000968087006480068001D054908600348DF
:103430000068401C0149086070470000300300200C
:103440002C0300200F48006800780E49096849786D
:1034500040EA01200B490968897840EA014009499E
:103460000968C97840EA01600749096808600648A8
:103470000068001D0449086002480068001D0149F9
:1034800008607047300300202C03002010490968B1
:1034900009780F4A1268527841EA02210C4A1268F0
:1034A000927841EA02410A4A1268D27841EA0260FF
:1034B0000178084A1268117006490968091D054A11
:1034C000116003490968091D014A11607047000035
:1034D000300300202C0300200449096851F8040C33
:1034E0000178024A126802F8041C70472C0300207D
:1034F0001049096809780F4A1268527841EA022196
:103500000C4A1268927841EA02410A4A1268D2785B
:1035100041EA0260084A01681268116006490968B8
:10352000091D054A116003490968091D014A116016
:1035300070470000300300202C0300200449096874
:1035400051F8040C024A0168126842F8041C7047E2
:103550002C0300201049096809780F4A1268527834
:1035600041EA02210C4A1268927841EA02410A4A71
:103570001268D27841EA02600188084A1268118014
:1035800006490968091D054A116003490968091DB2
:10359000014A116070470000300300202C03002016
:1035A0000449096851F8040C0188024A126822F89B
:1035B000041C70472C0300200B48006800780A495F
:1035C0000968497840EA012000B208490968088082
:1035D00006480068001D0549086003480068801C13
:1035E0000149086070470000300300202C030020D0
:1035F00000BF0B48006810F8080C0949096811F869
:10360000041C90FBF1F201FB12000549096801F866
:10361000080C03480068001F0149086000BF70479C
:103620002C03002000BF0B48006850F8080C094923
:10363000096851F8041C90FBF1F201FB12000549E6
:10364000096841F8080C03480068001F0149086038
:1036500000BF70472C03002000BF0B48006830F902
:10366000080C0949096831F9041C90FBF1F201FBCF
:1036700012000549096821F8080C03480068001F7A
:103680000149086000BF70472C03002000BF0A48B2
:10369000006810F8080C0849096811F8041C484330
:1036A0000549096801F8080C03480068001F024931
:1036B000086000BF704700002C03002000BF0A48CC
:1036C000006850F8080C0849096851F8041C484380
:1036D0000549096841F8080C03480068001F0249C1
:1036E000086000BF704700002C03002000BF0A489C
:1036F000006830F8080C0849096831F8041C484390
:1037000000B20549096821F8080C03480068001F49
:103710000149086000BF70472C030020704700007B
:1037200000BF0A48006810F8080C0849096811F839
:10373000041C08430549096801F8080C034800689F
:10374000001F0249086000BF704700002C030020E2
:1037500000BF0A48006850F8080C0849096851F889
:10376000041C08430549096841F8080C034800682F
:10377000001F0249086000BF704700002C030020B2
:1037800000BF0A48006830F9080C0849096831F997
:10379000041C08430549096821F8080C034800681F
:1037A000001F0249086000BF704700002C03002082
:1037B00002480068001F0149086070472C03002080
:1037C00000BF0A48006810F8080C0849096811F899
:1037D000041C88400549096801F8080C0348006882
:1037E000001F0249086000BF704700002C03002042
:1037F00000BF0A48006850F8080C0849096811F829
:10380000041C88400549096841F8080C0348006811
:10381000001F0249086000BF704700002C03002011
:1038200000BF0A48006830F8080C0849096811F818
:10383000041C884000B20549096821F8080C0348B7
:103840000068001F0149086000BF70472C0300207A
:1038500000BF0A48006810F8080C0849096811F808
:10386000041C08410549096801F8080C0348006870
:10387000001F0249086000BF704700002C030020B1
:1038800000BF0A48006850F8080C0849096811F898
:10389000041C08410549096841F8080C0348006800
:1038A000001F0249086000BF704700002C03002081
:1038B00000BF0A48006830F9080C0849096811F887
:1038C000041C08410549096821F8080C03480068F0
:1038D000001F0249086000BF704700002C03002051
:1038E0000748006810F8040C0549096851F8081CDD
:1038F000087003480068001F014908607047000015
:103900002C0300200748006850F8040C054909689A
:1039100051F8081C086003480068001F014908604E
:10392000704700002C0300200748006830F8040CA2
:103930000549096851F8081C088003480068001F01
:1039400001490860704700002C03002000BF0A48AE
:10395000006810F8080C0849096811F8041C401A9E
:103960000549096801F8080C03480068001F02496E
:10397000086000BF704700002C03002000BF0A4809
:10398000006850F8080C0849096851F8041C401AEE
:103990000549096841F8080C03480068001F0249FE
:1039A000086000BF704700002C03002000BF0A48D9
:1039B000006830F8080C0849096831F8041C401AFE
:1039C00000B20549096821F8080C03480068001F87
:1039D0000149086000BF70472C03002000BF0A485F
:1039E000006810F8080C0849096811F8041C4840E0
:1039F0000549096801F8080C03480068001F0249DE
:103A0000086000BF704700002C03002000BF0A4878
:103A1000006850F8080C0849096851F8041C48402F
:103A20000549096841F8080C03480068001F02496D
:103A3000086000BF704700002C03002000BF0A4848
:103A4000006830F9080C0849096831F9041C48403D
:103A50000549096821F8080C03480068001F02495D
:103A6000086000BF704700002C0300200649497D14
:103A7000054A50541146497D491CC9B25175142953
:103A800001DB002151757047681B002070B50446AA
:103A90000D4640F2575024EA000008B904B104E092
:103AA00040F22B410CA002F00FFB0DB1012D00D113
:103AB00004E040F22C4108A002F006FB2DB11548AD
:103AC000406920431349486104E012484069A0431B
:103AD0001049486170BD00004C696272617269658D
:103AE000735C53544D3332463130785F53746450B5
:103AF00065726970685F4472697665725C7372633F
:103B00005C73746D3332663130785F7263632E6339
:103B1000000000000010024070B504460D46104839
:103B2000204008B904B104E040F269410DA002F060
:103B3000CBFA0DB1012D00D104E040F26A4109A099
:103B400002F0C2FA2DB11648C06920431449C86179
:103B500004E01348C069A0431149C86170BD00006A
:103B6000003601814C69627261726965735C5354FD
:103B70004D3332463130785F5374645065726970EA
:103B8000685F4472697665725C7372635C73746DAE
:103B90003332663130785F7263632E630000000059
:103BA0000010024070B504460D461048204008B988
:103BB00004B104E040F24A410DA002F085FA0DB1D3
:103BC000012D00D104E040F24B4109A002F07CFA43
:103BD0002DB11648806920431449886104E01348D8
:103BE0008069A0431149886170BD00000200C0FFD8
:103BF0004C69627261726965735C53544D3332462D
:103C00003130785F5374645065726970685F4472D4
:103C1000697665725C7372635C73746D333266319E
:103C200030785F7263632E63000000000010024072
:103C300010B501210520FFF7B5FF01218803FFF72B
:103C4000B1FF01210520FFF7ADFF01214804FFF777
:103C500063FF01210920FFF7A5FF01218804FFF779
:103C60005BFF10BD30B500210022002400232D4D44
:103C70006D6805F00C0121B1042905D0082923D174
:103C800005E0294D056022E0274D05601FE0254D28
:103C90006D6805F47012234D6D6805F480340225BB
:103CA00005EB92421CB9214D554305600BE01D4DBB
:103CB0006D6805F400351DB11C4D5543056002E0EB
:103CC000194D5543056002E0174D056000BF00BF68
:103CD000144D6D6805F0F0010909154D6B5C056820
:103CE000DD4045600F4D6D6805F4E061090A104D37
:103CF0006B5C4568DD4085600A4D6D6805F4605178
:103D0000C90A0B4D6B5C4568DD40C560054D6D68AB
:103D100005F44041890B074D6B5CC568B5FBF3F5B5
:103D2000056130BD0010024000127A0000093D001C
:103D3000780100208801002070B504460121A268A6
:103D400020689047206900B917E00DF03DF805465E
:103D50000DE00DF039F8401BE169884202D96FF09F
:103D6000010070BDE169491C48080CF06FFD216934
:103D7000206888470028ECD000BF204607F074F880
:103D80000020EEE7704710B500F002F810BD00000B
:103D90000CB50020019000903348006840F480305A
:103DA0003149086000BF3048006800F400300090DE
:103DB0000198401C0190009818B90198B0F5A06FC7
:103DC000F1D12948006800F4003010B101200090C2
:103DD00001E0002000900098012843D123480068AA
:103DE00040F01000214908600846006820F00300F8
:103DF00008600846006840F0020008601A48406801
:103E0000194948600846406848600846406840F4E0
:103E1000806048600846406820F47C10486008468E
:103E2000406840F4A81048600846006840F0807080
:103E3000086000BF0C48006800F000700028F9D04E
:103E40000948406820F00300074948600846406878
:103E500040F00200486000BF0348406800F00C00DA
:103E60000828F9D10CBD00000010024000200240DB
:103E700010B50AF0F5FE0CF0ADFF0AF013FF10BD0F
:103E800010B51348006840F0010011490860084669
:103E90004068104908400E494860084600680E49CD
:103EA00008400B4908600846006820F4802008603C
:103EB0000846406820F4FE0048604FF41F00886008
:103EC000FFF761FF4FF000600449086010BD00007B
:103ED000001002400000FFF8FFFFF6FE08ED00E0D2
:103EE00010B50AF0BDFE03480EF0D8FE0AF0DAFE67
:103EF00010BD0000FC15002010B50AF0B1FE03480B
:103F00000EF0CCFE0AF0CEFE10BD000050160020D0
:103F100010B50AF0A5FE03480EF0C0FE0AF0C2FE7E
:103F200010BD0000A41600202DE9F04104460D4606
:103F300000260027224884420BD02248844208D021
:103F40002148844205D02148844202D0204884423E
:103F500000D104E040F20A411EA002F0B5F840F2A0
:103F6000266085420BD040F22550854207D040F6AE
:103F70004600854203D040F66A10854200D104E035
:103F800040F20B4113A002F09FF840F66A10854200
:103F90000ED10B48844205D00A48844202D00A4818
:103FA000844200D104E040F20F410AA002F08CF8F4
:103FB0002E120120B04087B2F8432080BDE8F08186
:103FC000003801400044004000480040004C0040E0
:103FD000005000404C69627261726965735C5354B1
:103FE0004D3332463130785F537464506572697076
:103FF000685F4472697665725C7372635C73746D3A
:104000003332663130785F75736172742E630000ED
:1040100070B504460D46154884420BD014488442BE
:1040200008D01448844205D01348844202D0134873
:10403000844200D104E04FF4B17111A002F044F8C1
:104040000DB1012D00D104E040F263110CA002F08B
:104050003BF825B1A08940F40050A08104E0A0897C
:104060004DF6FF710840A08170BD0000003801408E
:104070000044004000480040004C00400050004018
:104080004C69627261726965735C53544D33324698
:104090003130785F5374645065726970685F447240
:1040A000697665725C7372635C73746D333266310A
:1040B00030785F75736172742E63000070B50446CA
:1040C0000D461646184884420BD01848844208D042
:1040D0001748844205D01748844202D016488442CB
:1040E00000D104E040F2C31114A001F0EDFF4FF63F
:1040F0003F70284008B905B104E04FF4E2710FA009
:1041000001F0E2FF0EB1012E00D104E040F2C51132
:104110000AA001F0D9FF1EB1A08A2843A08202E0C4
:10412000A08AA843A08270BD00380140004400402E
:1041300000480040004C0040005000404C69627252
:1041400061726965735C53544D3332463130785F28
:104150005374645065726970685F44726976657201
:104160005C7372635C73746D3332663130785F7583
:10417000736172742E63000070B505460C4600260C
:10418000254885420BD02548854208D024488542E1
:1041900005D02448854202D02348854200D104E05E
:1041A00040F26E3121A001F08FFF012C13D0802C42
:1041B00011D0402C0FD0202C0DD0102C0BD0B4F5EA
:1041C000807F08D0B4F5007F05D0082C03D0042CE4
:1041D00001D0022C00D104E040F26F3113A001F0B5
:1041E00073FFB4F5007F0ED10B48854205D00B4814
:1041F000854202D00A48854200D104E040F2733182
:104200000AA001F061FF2888204008B1012600E0E3
:104210000026304670BD00000038014000440040D8
:1042200000480040004C0040005000404C69627261
:1042300061726965735C53544D3332463130785F37
:104240005374645065726970685F44726976657210
:104250005C7372635C73746D3332663130785F7592
:10426000736172742E6300002DE9F04705460C4619
:1042700000270026B046B1463A4885420BD03A485E
:10428000854208D03948854205D03948854202D058
:104290003848854200D104E040F2C13136A001F037
:1042A00013FF282C20D040F2277084421CD040F20B
:1042B0002660844218D040F22550844214D040F247
:1042C0002440844210D040F6460084420CD040F690
:1042D0006A10844208D0B4F5587F05D0B4F5187F31
:1042E00002D0B4F5B07F00D104E040F2C23122A088
:1042F00001F0EAFE40F66A1084420ED11948854268
:1043000005D01948854202D01848854200D104E002
:1043100040F2C63118A001F0D7FEC4F3421804F0F1
:104320001F06012000FA06F6B8F1010F02D1A88994
:10433000064007E0B8F1020F02D1288A064001E0EA
:10434000A88A06402712012000FA07F728880740AC
:104350001EB117B14FF0010901E04FF000094846C6
:10436000BDE8F087003801400044004000480040AC
:10437000004C0040005000404C69627261726965F7
:10438000735C53544D3332463130785F537464500C
:1043900065726970685F4472697665725C73726396
:1043A0005C73746D3332663130785F75736172742B
:1043B0002E6300002DE9F04705460C4617464FF0E6
:1043C0000008C246C1460026384885420BD038480E
:1043D000854208D03748854205D03748854202D00B
:1043E0003648854200D104E040F2891134A001F042
:1043F0006BFE282C19D040F22770844215D040F271
:104400002660844211D040F2255084420DD040F203
:104410002440844209D040F64600844205D040F64C
:104420006A10844201D0602C00D104E04FF4C571C1
:1044300023A001F049FE0FB1012F00D104E040F2AA
:104440008B111FA001F040FE40F66A1084420ED18D
:104450001648854205D01648854202D01548854247
:1044600000D104E040F28F1115A001F02DFE2E4680
:10447000C4F3421804F01F0A012000FA0AF9B8F147
:10448000010F01D10C3605E0B8F1020F01D1103651
:1044900000E0143627B1306840EA0900306003E0DC
:1044A000306820EA09003060BDE8F087003801403C
:1044B0000044004000480040004C004000500040D4
:1044C0004C69627261726965735C53544D33324654
:1044D0003130785F5374645065726970685F4472FC
:1044E000697665725C7372635C73746D33326631C6
:1044F00030785F75736172742E6300002DE9F047A8
:1045000086B005460C460026B24600BFB1460027DD
:104510006B4885420BD06B48854208D06A4885427B
:1045200005D06A48854202D06948854200D103E03F
:10453000B82168A001F0C8FD206820B17449206846
:10454000884200D203E0B92162A001F0BDFDA0883D
:1045500018B1A088B0F5805F00D103E0BA215DA05A
:1045600001F0B2FDE08858B1E088B0F5805F07D077
:10457000E088B0F5005F03D0E088B0F5405F00D17F
:1045800003E0BB2153A001F09FFD208938B12089B1
:10459000B0F5806F03D02089B0F5C06F00D103E083
:1045A000BC214CA001F090FD60894FF6F3710840EA
:1045B00010B9608900B103E0BD2146A001F084FD7F
:1045C000A08958B1A089B0F5807F07D0A089B0F547
:1045D000007F03D0A089B0F5407F00D103E0BE2169
:1045E0003CA001F071FDA08968B13548854205D035
:1045F0003448854202D03448854200D103E0C221CC
:1046000034A001F061FD2F462E8A4CF6FF70064063
:10461000E08806432E82AE894EF6F3100640A0884D
:1046200021890843618908430643AE81AE8A4FF66B
:10463000FF400640A0890643AE8201A8FFF712FBA7
:104640001F48874202D1DDF810A001E0DDF80CA080
:10465000A88900F4004040B10AEBCA0000EB0A1040
:1046600021684900B0FBF1F807E00AEBCA0000EB53
:104670000A1021688900B0FBF1F86420B8FBF0F063
:1046800006013009642101FB1089A88900F400406B
:1046900040B1322000EBC900B0FBF1F000F00700A0
:1046A000064308E0322000EB09106421B0FBF1F072
:1046B00000F00F0006432E8106B0BDE8F087000031
:1046C000003801400044004000480040004C0040D9
:1046D000005000404C69627261726965735C5354AA
:1046E0004D3332463130785F53746450657269706F
:1046F000685F4472697665725C7372635C73746D33
:104700003332663130785F75736172742E630000E6
:1047100021AA440010B504460C4884420BD00C4832
:10472000844208D00B48844205D00B48844202D012
:104730000A48844200D104E04FF4197108A001F046
:10474000C3FCA088C0F3080010BD00000038014081
:104750000044004000480040004C00400050004031
:104760004C69627261726965735C53544D333246B1
:104770003130785F5374645065726970685F447259
:10478000697665725C7372635C73746D3332663123
:1047900030785F75736172742E63000070477047E4
:1047A00000BFFEE70FB41CB50246002007AC00298D
:1047B0000BD0491ECDE90021054B6A4621460698DB
:1047C00000F00AFE009A002111701CBC5DF814FB79
:1047D000B160000800487047EC04002002E008C8FF
:1047E000121F08C1002AFAD170477047002001E06B
:1047F00001C1121F002AFBD1704700002DE9FF5FA5
:1048000082B00021DDE90430020DDDF840B0034341
:1048100018D044F61050A2F2FF32424315141198FA
:1048200001281FD0A5EB0B00401C5FEA000A4FF0E7
:1048300000064E4FDFF83891B046504615D5CAF104
:10484000000413E0119801244AA3012801D16FEA62
:104850000B010298119AC0E90031C0E9024206B08A
:10486000BDE8F09FCBF10000DFE704460021404A9D
:10487000491842EB0450CDE9001012E0E00707D0E0
:1048800032463B4640464946FCF7B7FA80468946E1
:1048900032463B4610461946FCF7AFFA06460F462D
:1048A0006410002CEAD1DDE90401DDE90023BAF14E
:1048B000000F06DAFCF7A1FA42464B46FCF79DFAD8
:1048C00005E0FCF70CFB42464B46FCF708FB0446B0
:1048D0000E460022284BFCF74FF803D84FF0FF306C
:1048E000014607E00022254B20463146FCF7DEF961
:1048F000FCF770FB102409E0002C0ADB0A220023DD
:10490000FCF784F8039B30321A55641E50EA01020A
:10491000F2D1641C039AC4F111031444119A012AC0
:1049200003D0012208430DD10AE0084304D000203F
:104930004FF0110B119072E7A3EB0B056D1E0DE00C
:104940005B4504DD4FF0000205F1010504E003DAE8
:104950004FF00002A5F10105002AECD00298119950
:10496000C0E90231C0E9004579E7000000001440C9
:104970000000F03F300000000000F0430000E03F86
:1049800003490868884201D0012070470020FCE7F5
:104990008002002030380A2801D201207047002010
:1049A000704700002DE9F04397B0064650221C499D
:1049B00003A8FBF759FC0FF26C0948460BF07AFD8F
:1049C0008046304607F0A0FE0746474500DA4746D6
:1049D0004A46394615A00AF0CBF9384607F0B4FE2E
:1049E0001CA00AF0C5F9356814E0A5F10C04A17EFD
:1049F000207D132804DC207D03AA52F8200000E06B
:104A0000169823460822CDE9000139461AA00AF07B
:104A1000AFF92D68B542E8D1002017B0BDE8F083AA
:104A2000587D01086465766963650000252D2A2E8E
:104A300073202020202020202020747970652020E1
:104A40002020202020202072656620636F756E7400
:104A50000A000000202D2D2D2D2D2D2D2D2D2D2D3D
:104A60002D2D2D2D2D2D2D2D2D202D2D2D2D2D2D83
:104A70002D2D2D2D0A000000252D2A2E2A732025EC
:104A80002D32307320252D38640A00002DE9FC41B9
:104A90000546284607F038FE80461CA241461DA068
:104AA0000AF066F9404607F04FFE23A00AF060F9CD
:104AB0002E6825E0A6F10C0404F114000AF0DBF9DD
:104AC000A8B904F114000AF0DEF90746E0692346AC
:104AD00008224146CDE900071FA00AF049F904F178
:104AE00014000DF027F913A00AF042F907E0E0697D
:104AF00023460822414600901DA00AF039F9366885
:104B0000AE42D7D10020BDE8FC8100006576656E1D
:104B100074000000252D2A2E7320202020202073D1
:104B200065742020202073757370656E642074682E
:104B3000726561640A00000020202D2D2D2D2D2D81
:104B40002D2D2D2D202D2D2D2D2D2D2D2D2D2D2DA2
:104B50002D2D2D0A00000000252D2A2E2A7320203D
:104B600030782530387820253033643A0000000052
:104B7000252D2A2E2A7320203078253038782030B1
:104B80000A0000002DE9FE4F06460FF29C09484638
:104B90000BF090FC8046304607F0B6FD07464745CF
:104BA00000DA47464A46394621A00AF0E1F838467D
:104BB00007F0CAFD27A00AF0DBF835682FE0A5F161
:104BC0000C0404F114000AF056F9B8B904F1140009
:104BD0000AF059F98246208C618C23460822CDE9DF
:104BE000010A0091394622A00AF0C2F804F114002B
:104BF0000DF0A0F824A00AF0BBF80FE004F11400B7
:104C00000AF041F98246208C618C23460822CDE9C6
:104C1000010A009139461DA00AF0AAF82D68B54294
:104C2000CDD10020BDE8FE8F6D61696C626F7800A8
:104C3000252D2A2E7320656E7472792073697A652A
:104C40002073757370656E64207468726561640AA0
:104C500000000000202D2D2D2D20202D2D2D2D206C
:104C60002D2D2D2D2D2D2D2D2D2D2D2D2D2D0A00C4
:104C7000252D2A2E2A732025303464202025303417
:104C8000642025643A0000000A000000252D2A2E29
:104C90002A73202530346420202530346420256494
:104CA0000A0000002DE9FF410546284607F02CFDCB
:104CB00007461EA239461FA00AF05AF8384607F0E8
:104CC00043FD26A00AF054F82E6828E0A6F10C0453
:104CD000606BA8B1D4E90931E269606BCDE90023CA
:104CE000CDE9021023460822394625A00AF040F8F3
:104CF00004F12C000DF01EF820A00AF039F80DE0A8
:104D0000D4E90931E269606BCDE90023CDE90210F5
:104D100023460822394621A00AF02AF83668AE4216
:104D2000D4D1002004B0BDE8F08100006D656D7045
:104D30006F6F6C00252D2A2E7320626C6F636B20C1
:104D4000746F74616C20667265652073757370652D
:104D50006E64207468726561640A0000202D2D2D38
:104D60002D20202D2D2D2D20202D2D2D2D202D2DB4
:104D70002D2D2D2D2D2D2D2D2D2D2D2D0A0000000D
:104D8000252D2A2E2A732025303464202025303406
:104D9000642020253034642025643A00252D2A2EF5
:104DA0002A732025303464202025303464202025C7
:104DB0003034642025640A002DE9FC4706460FF2D2
:104DC000940948460BF076FB8046304607F09CFC81
:104DD0000746474500DA47464A46394620A009F0CB
:104DE000C7FF384607F0B0FC24A009F0C1FF3568C2
:104DF0002BE0A5F10C0404F114000AF03CF8A8B96A
:104E000004F114000AF03FF88246A08C23460822E1
:104E10003946CDE9000A1FA009F0AAFF04F11400E9
:104E20000CF088FF20A009F0A3FF0DE004F11400AE
:104E30000AF029F88246A08C234608223946CDE99B
:104E4000000A1AA009F094FF2D68B542D1D10020C4
:104E5000BDE8FC876D7367717565756500000000BE
:104E6000252D2A2E7320656E7472792073757370E8
:104E7000656E64207468726561640A00202D2D2DB2
:104E80002D20202D2D2D2D2D2D2D2D2D2D2D2D2D6C
:104E90002D0A0000252D2A2E2A7320253034642067
:104EA0002025643A000000000A000000252D2A2E6B
:104EB0002A732025303464202025640A0000000075
:104EC0002DE9FF410546284607F01EFC804613A247
:104ED000414614A009F04CFF404607F035FC1AA0EB
:104EE00009F046FF2E6813E0A6F10C0404F114004B
:104EF00009F0C9FF0746E07F0822216A2346CDE971
:104F00000207CDE90021414617A009F031FF3668BC
:104F1000AE42E9D1002004B0BDE8F0816D75746542
:104F200078000000252D2A2E732020206F776E65D3
:104F3000722020686F6C642073757370656E6420D6
:104F40007468726561640A00202D2D2D2D2D2D2D84
:104F50002D202D2D2D2D202D2D2D2D2D2D2D2D2D9B
:104F60002D2D2D2D2D0A0000252D2A2E2A732025CA
:104F70002D382E2A7320253034642025640A000041
:104F80002DE9FC410646304607F0BEFB0746092FD7
:104F900000DA09271EA2394620A009F0E9FE3846AA
:104FA00007F0D2FB24A009F0E3FE35682BE0A5F161
:104FB0000C0404F1140009F05EFFA8B904F1140018
:104FC00009F061FF8046A08B234608223946CDE9CF
:104FD00000081FA009F0CCFE04F114000CF0AAFE9A
:104FE00014A009F0C5FE0DE004F1140009F04BFF18
:104FF0008046A08B234608223946CDE9000818A038
:1050000009F0B6FE2D68B542D1D10020BDE8FC8183
:1050100073656D6170686F7265000000252D2A2E22
:1050200073207620202073757370656E6420746819
:10503000726561640A000000202D2D2D202D2D2D7C
:105040002D2D2D2D2D2D2D2D2D2D2D0A0000000067
:10505000252D2A2E2A7320253033642025643A001A
:10506000252D2A2E2A7320253033642025640A003A
:105070002DE9FC470646304607F046FB82462AA249
:1050800051462B4809F074FE504607F05DFB29A0FD
:1050900009F06EFED6F8008041E0A8F10C0494F807
:1050A0003500234608225146009032A009F060FEE8
:1050B00094F83450012D03D131A009F059FE0FE0CE
:1050C000022D03D131A009F053FE09E01DB932A031
:1050D00009F04EFE04E0042D02D132A009F048FE92
:1050E000A76A00E07F1C38782328FBD0D4E90A1097
:1050F000791A401A64214843E16AB0FBF1F9216B47
:10510000A06CCDE90001E369A06AC01AE36AC11886
:105110001A464B4626A009F02BFED8F80080B04571
:10512000BBD10020BDE8FC87746872656164000033
:10513000948A0108202D2D2D20202D2D2D2D2D2D53
:105140002D202D2D2D2D2D2D2D2D2D2D202D2D2DA9
:105150002D2D2D2D2D2D2D20202D2D2D2D2D2D20A6
:10516000202D2D2D2D2D2D2D2D2D2D202D2D2D0AAC
:1051700000000000252D2A2E2A73202533642000EC
:10518000207265616479202000000000207375732F
:1051900070656E640000000020696E697420202034
:1051A0000000000020636C6F736520200000000089
:1051B0002030782530387820307825303878202015
:1051C00020202530326425252020203078253038D5
:1051D0007820253033640A002DE9FC410546284635
:1051E00007F092FA074618A2394619A009F0C0FD47
:1051F000384607F0A9FA20A009F0BAFD2E6817E09A
:10520000A6F10C04D4E9090123460822CDE90001E6
:10521000394622A009F0ACFD607A00F0010018B117
:1052200024A009F0A5FD02E025A009F0A1FD366843
:10523000AE42E5D10BF0C8FD8046414624A009F0FE
:1052400097FD0020BDE8FC8174696D657200000067
:10525000252D2A2E732020706572696F6469632082
:10526000202074696D656F75742020202020202017
:10527000666C61670A000000202D2D2D2D2D2D2D2F
:105280002D2D2D202D2D2D2D2D2D2D2D2D2D202D68
:105290002D2D2D2D2D2D2D2D2D2D0A00252D2A2E98
:1052A0002A732030782530387820307825303878C7
:1052B000200000006163746976617465640A00000F
:1052C00064656163746976617465640A0000000056
:1052D00063757272656E74207469636B3A307825F9
:1052E0003038780A000000002DE9F0410546884674
:1052F00016462F4627B94522084909A008F056F856
:1053000034461CB94FF0FF30BDE8F0816288218837
:10531000386C0368284698470020F5E7947C01081C
:1053200070696E20213D2052545F4E554C4C000058
:105330002DE9F0470546894616461F46A846B8F1AE
:10534000000F04D126220A490AA008F02FF834469B
:105350000CB1042F02D00020BDE8F0872188D8F8D6
:10536000400082682846904760803846F4E7000095
:105370007F7C010870696E20213D2052545F4E559C
:105380004C4C00002DE9F0470546894616461F465D
:10539000A846B8F1000F04D135220A490AA008F046
:1053A00005F834460CB1042F02D00020BDE8F08788
:1053B00062882188D8F840004368284698473846D4
:1053C000F4E70000897C010870696E20213D2052BD
:1053D000545F4E554C4C00002DE9FF4F95B09B4655
:1053E0008946064600250FE2252877D10024274666
:1053F000F84A0121059400E0044316F8013F203BE0
:1054000001FA03F01042F7D130782A2811D06FF05A
:105410002F033078A0F13002092A16D8059A44F0FB
:10542000020402EB820203EB42021044761C059058
:10543000EFE759F8042B0592002A03DA504244F4AE
:105440000054059044F00204761C30782E2816D1C2
:1054500016F8010F44F004042A280DD06FF02F0233
:105460003078A0F13003092B09D807EB870302EB52
:105470004303C718761CF3E759F8047B761C307891
:105480006C280FD006DC4C2817D068280DD06A286D
:1054900014D104E0742810D07A280FD10DE044F420
:1054A00000140AE044F4801401E044F440147278DB
:1054B000824202D104F58014761C761C307866286E
:1054C0000BD013DC582877D009DC002875D045288C
:1054D000F6D04628F4D047281AD19DE118E0632879
:1054E00035D0642879D0652812D195E1702873D021
:1054F00008DC6728F1D069286FD06E280DD06F289E
:1055000006D1B5E073282CD0752875D0782874D0D2
:105510005A46179990476D1C75E1C4F30250022852
:1055200009D003280DD0D9F8001004280DD00D6043
:1055300009F1040967E1D9F80010EA17C1E900523E
:10554000F6E7D9F800100D80F2E70D70F0E719F8D2
:10555000041B8DF8001000208DF80100EA460120A0
:1055600003E059F804AB4FF0FF3061074FF0000142
:1055700002D40DE008F101018846B9420FDA8045F6
:10558000F8DB1AF808100029F4D108E008F101014D
:1055900088468142FADB1AF808100029F6D10598EE
:1055A0005B46A0EB080721463846179A00F094FAAC
:1055B000284400EB080507E04DE029E10DE01AF86A
:1055C000010B5A4617999047B8F10108F7D25B468C
:1055D00021463846179A13E142E00A220092C4F3AA
:1055E00002524FF0000A022A08D059F804CB032ACD
:1055F0004FEAEC710AD00DE029E02AE009F1070139
:1056000021F00702F2E802C1914609E00FFA8CFC92
:105610004FEAEC71042A03D14FFA8CFC4FEAEC718B
:10562000002907DA0A460021DCF1000C61EB0201D7
:105630002D2202E0220504D52B228DF80420012220
:1056400003E0E20701D02022F7E7904659E00A2163
:1056500002E010220DE010214FF0000A00910BE053
:1056600010224FF0000A44F004040827009203E0DF
:1056700008224FF0000A0092C4F30252022A05D019
:1056800059F804CB0021032A08D009E009F10701E9
:1056900021F00702F2E802C1914605E01FFA8CFCF6
:1056A000042A01D10CF0FF0C4FF00008220728D586
:1056B000702806D0009B83F0100353EA0A0305D03C
:1056C0000EE040228DF80420012208E05CEA01028D
:1056D00006D030228DF804208DF805000222904675
:1056E000009B83F0080353EA0A030AD15CEA010233
:1056F00001D1620705D530228DF804204FF0010852
:105700007F1E582804D034A003900EA802900DE00C
:1057100036A0F9E753466046009AFBF777F98446CE
:105720000398825C0298401E029002705CEA0100BD
:10573000F0D1029806A9081A00F1200A600702D5E4
:1057400024F4803400E00127574502DDA7EB0A006E
:1057500000E0002000EB0A01009005984144401A47
:105760000590E00306D45B462146179A059800F0A1
:10577000B3F90544002706E001A85A46C05D179911
:1057800090476D1C7F1C4745F6DBE0030CD55B465C
:105790002146179A059800F09FF9054404E030204F
:1057A0005A46179990476D1C0099481E0090002991
:1057B000F5DC08E0029802995A460078491C0291EB
:1057C000179990476D1CBAF10001AAF1010AF1DCAA
:1057D00065E10000092801003031323334353637B5
:1057E000383961626364656600000000303132332D
:1057F00034353637383941424344454600000000CD
:1058000000F058F90544761C307800287FF4ECADA0
:1058100019B02846BDE8F08F620700D4062709F1C9
:10582000070222F0070CFCE80223E14603F00048DF
:105830005FEA080C02D00FF2702C0DE05FEA045C06
:1058400002D50FF2682C07E05FEAC47C02D00FF2A9
:10585000602C01E0AFF2700C4FF0FF3823F00043F2
:10586000CDF850C065280CD006DC452809D0462864
:105870001DD047283DD13DE0662818D067287ED14D
:1058800038E00021112F01DB112000E0781CCDE968
:10589000000106A90EA8FEF7B1FFDDE90F010E9A7F
:1058A00003910021009207F1010A04914DE04FF0AD
:1058B00000400097CDE9011006A90EA8FEF79EFF53
:1058C000DDE90F0203920E9B11990022DDF80CA076
:1058D0000093049211B9791C00EB010AB7EB0A009E
:1058E00004D4C0F1FF3007F1010A0490AAEB0700CD
:1058F000019044E0012F00DA01270021112F01DD82
:10590000112000E03846CDE9000106A90EA8FEF7F7
:1059100075FFDDE90F010E9A0391002104910092B9
:10592000BA4621070CD40399514500DA8A46BAF1E8
:10593000010F05DD009AAAF10101515C302908D060
:10594000B84202DA10F1040F06DA0121CDE90110A4
:1059500015E0AAF10101E9E7002805DC04990144FA
:105960000491AAEB000102E0411C514500DD8A468A
:105970000499401A401C01904FF00040029020070B
:1059800004D40198504501DBCDF8048000208DF847
:105990004F0002980DF14F07B0F1004F25D02B209A
:1059A0000E9002984FF0020800280CDA4042029054
:1059B0002D200E9007E00A210298FBF711F83031F4
:1059C000029007F8011DB8F10001A8F10108F2DC0E
:1059D00002980028EFD1791E0E980870307800F0F8
:1059E000200040F0450007F8020D12A8C01B00F18E
:1059F00007081498007800B1012000EB0A01019813
:105A000001EBE07105984144401A401E0590E00307
:105A100006D45B462146179A059800F05DF80544C8
:105A20001498007818B15A46179990476D1CE003F6
:105A300024D55B462146179A059800F04DF8054499
:105A40001CE00498002807DBDDE90301884203DD40
:105A50000098405C179901E0179930205A4690470A
:105A6000049805F10105401C04900198401E019026
:105A700004D12E205A46179990476D1CBAF10001A7
:105A8000AAF1010ADDDC05E017F8010B5A46179967
:105A900090476D1CB8F10001A8F10108F4DC5B46E9
:105AA0002146179A0598ABE62D0000002B00000058
:105AB000200000002DE9F041044600251E4617464F
:105AC000880404D405E039462020B0476D1C641ECC
:105AD000F9D52846BDE8F0812DE9F04104460025BE
